:060000000A128A11122809
:10000800FE00030EF2000408F3000A08F40083124D
:1000180003137F08F5000A128A15F32D0A128A15B0
:100028003C2D83160313BB01BC01BD01BE01B50104
:10003800B601B101B2011E30FA000030FB000A120D
:100048008A15CC250A128A112928831603132A1C1B
:100058002E282F2847280030C6000030C500003061
:10006800C4000030C3000030C2000030C1000030BE
:10007800C0000030BF00B301B401AF01B001B1014D
:10008800B2012A104728AA1D4A284B28202B2D08E0
:1000980084008313000883120313A000840A000855
:1000A800A100831603132E0884000008831203138B
:1000B800A200840A0008A3000A128A154E250A1213
:1000C8008A11831603133C0883120313A101A107A5
:1000D800831603133B0883120313A001A00783169A
:1000E80003133E0883120313A301A3078316031304
:1000F8003D0883120313A201A2070A128A11602580
:100108000A128A11031083120313861A031400308B
:1001180003180130DC00DD015C08F8005D08F90017
:1001280083160313AA11202B202BBB308312031331
:10013800A0000030A100BD30A2000030A3000A12C8
:100148008A154E250A128A11831603133C08831256
:100158000313A101A107831603133B08831203139A
:10016800A001A007831603133E0883120313A301FB
:10017800A307831603133D0883120313A201A207E2
:100188000A128A1160250A128A11831603133C0881
:1001980083120313A901A907831603133B088312CB
:1001A8000313A801A807831603133E088312031339
:1001B800AB01AB07831603133D0883120313AA018F
:1001C800AA070A128A1567260A128A1183120313CC
:1001D800290883160313B801B807831203132808E4
:1001E80083160313B701B7077B0883120313A10112
:1001F800A1077A08A001A007831603133808831201
:100208000313A301A30783160313370883120313E9
:10021800A201A2070A128A15A9250A128A118312B5
:100228000313210883160313BA01BA0783120313B1
:10023800200883160313B901B9074608831203136C
:10024800A30083160313450883120313A200831621
:100258000313440883120313A100831603134308EE
:1002680083120313A00083160313390883120313A0
:10027800A400831603133A0883120313A500003061
:10028800A51BFF30A600A7000A128A11FE260A1233
:100298008A11831603133308831203132007831666
:1002A8000313B30034080318340A83120313210715
:1002B80083160313B4003C0883120313A901A9078A
:1002C800831603133B0883120313A801A807831698
:1002D8000313320883120313A301A307831603131E
:1002E800310883120313A201A207831603133A08E5
:1002F80083120313A101A10783160313390883127C
:100308000313A001A0070A128A15A9250A128A1147
:10031800831203132108AB01AB072008AA01AA071F
:100328000A128A1567260A128A11831203132908EA
:1003380083160313B001B00783120313280883162A
:100348000313AF01AF073A0883120313B701B707C6
:1003580083160313390883120313B601B6070A126A
:100368008A11A6270A128A11831203133608BF00BE
:100378003708C0003808C1000030BC008030BD001C
:100388003F30BE000A128A1172240A128A1183129F
:1003980003133C08CF003D08D0003E08D100831667
:1003A8000313340883120313B701B7078316031323
:1003B800330883120313B601B6070A128A11A62757
:1003C8000A128A11831203133608BF003708C000C7
:1003D8003808C1000030BC008030BD003F30BE008E
:1003E8000A128A1172240A128A11831203133C0812
:1003F800CC003D08CD003E08CE000A128A112C23FD
:100408000A128A11831203134C08CF004D08D0003A
:100418004E08D10083160313300883120313B70163
:10042800B707831603132F0883120313B601B60701
:100438000A128A11A6270A128A1183120313360890
:10044800BF003708C0003808C1000030BC00803049
:10045800BD003F30BE000A128A1172240A128A11A6
:10046800831203133C08CC003D08CD003E08CE00A3
:100478000A128A112C230A128A11831203134C08B8
:10048800A8004D08A9004E08AA000A128A155A2782
:100498000A128A1183120313290883160313AC0165
:1004A800AC0783120313280883160313AB01AB07A9
:1004B8003A08B201B2073908B101B1073608350464
:1004C800031D672A682A6D2A0130B5000030B6007E
:1004D8006D2A38083704031D722A732A782A0130D6
:1004E800B7000030B800782A2C0883120313B7012C
:1004F800B707831603132B0883120313B601B60735
:100508000A128A11A6270A128A11831203133608BF
:10051800BF003708C0003808C10083160313360827
:1005280083120313B701B707831603133508831221
:100538000313B601B6070A128A11A6270A128A11EE
:10054800831203133608BC003708BD003808BE0004
:100558000A128A1172240A128A11831203133C08A0
:10056800BF003D08C0003E08C1000030BC0080301C
:10057800BD003F30BE000A128A1172240A128A1185
:10058800831203133C08CF003D08D0003E08D10079
:1005980083160313380883120313B701B7078316AA
:1005A8000313370883120313B601B6070A128A1118
:1005B800A6270A128A11831203133608CC003708BB
:1005C800CD003808CE000A128A1136260A128A117E
:1005D800831203134C08A8004D08A9004E08AA006E
:1005E8000A128A155A270A128A1183120313290834
:1005F80083160313B601B60783120313280883165C
:100608000313B501B5073D088312031388000030B2
:10061800A0000030A1000A128A1589250A128A1141
:10062800323083120313A0000030A1000A128A118D
:10063800D2270A128A11202B831603132A08031DB6
:10064800262B99282928292829280A128A111228AC
:10065800831203134C08D2004D08D3004E08D4006F
:100668000310530D540DD5005508D8004F08D2007B
:100678005008D3005108D4000310530D540DD50071
:100688005508D7005808031D4A2B5B2B57085802FA
:1006980003184F2B502B632B5803FF3A5707D200F0
:1006A80019305202031C592B5A2B632B5B2B4F0812
:1006B800CC005008CD005108CE00712C712C570881
:1006C800031D672B772B5808570203186C2B6D2BCB
:1006D800782B5703FF3A5807D20019305202031CEF
:1006E800762B772B782B712C0630D2005208D60047
:1006F800CE1F7F2B802B812BD617D11F842B852BC8
:10070800862B5617CD17FF30CC05FF30CD050030AE
:10071800CE05D017FF30CF05FF30D0050030D1050A
:10072800570858020318992B9A2BCB2B9B2B013077
:100738000310CF0DD00DD10DFF3E031D9C2B0130B2
:10074800D702570858060319AA2BAB2BC32B013025
:10075800D60256080739031DB22BB32B9B2BC32B8C
:10076800C32BC32B01300310CE0CCD0CCC0CFF3E99
:10077800031DB72B0130D2005208D807C32B5808E5
:100788005706031DC82BC92BB62B022C022C580860
:1007980057020318D02BD12B022CD22B0130031077
:1007A800CC0DCD0DCE0DFF3E031DD32B0130D8024D
:1007B800570858060319E12BE22BFA2B0130D60211
:1007C80056080739031DE92BEA2BD22BFA2BFA2BF3
:1007D800FA2B01300310D10CD00CCF0CFF3E031DB7
:1007E800EE2B0130D2005208D707FA2B58085706CB
:1007F800031DFF2B002CED2B022C022CD61F052CE1
:10080800062C172CFF30CC06FF30CD06FF30CE0665
:100818000130CC07003003180130CD070030031831
:100828000130CE07172C561F1A2C1B2C2C2CFF30EE
:10083800CF06FF30D006FF30D1060130CF07003099
:1008480003180130D007003003180130D1072C2CD1
:10085800D6014C08CF074D08031103184D0A031998
:10086800362CD0074E08031103184E0A03193D2CE5
:10087800D107D11F402C412C552CFF30CF06FF301B
:10088800D006FF30D1060130CF0700300318013001
:10089800D007003003180130D107D6010314D60D54
:1008A800552C4F08A0005008A1005108A200580874
:1008B800D2005208A3005608D3005308A4000A1215
:1008C8008A15DD260A128A11831203132008CC0028
:1008D8002108CD002208CE00712C080083120313D2
:1008E8003C08C2003D08C3003E08C4000310430D85
:1008F800440DC5004508C600C608031D842C852C78
:100908008D2C0030BC000030BD000030BE005F2DD3
:100918005F2D3F08C2004008C3004108C40003100F
:10092800430D440DC5004508CB00CB08031D9D2C85
:100938009E2CA62C0030BC000030BD000030BE004C
:100948005F2D5F2D4B087B3EC2004208C6073C085E
:10095800C2003D08C3003E08C40010300310C40C98
:10096800C30CC20CFF3E031DB22C4208C50045084B
:10097800CB003F08C2004008C3004108C400103043
:100988000310C40CC30CC20CFF3E031DC42C420848
:10099800C5004508CB068030C2004208CB05BD170C
:1009A800C017FF30BF05FF30C0050030C10500305B
:1009B800C7000030C8000030C9000730C200420834
:1009C800CA00E62C3C1CE92CEA2CFB2C3F08C70784
:1009D800400803110318400A0319F32CC8074108FB
:1009E80003110318410A0319FA2CC907FB2C01301B
:1009F8000310BE0CBD0CBC0CFF3E031DFC2C0130CB
:100A08000310BF0DC00DC10DFF3E031D042D0130A5
:100A1800CA02031D102D112DE62C122D0930C2001B
:100A28004208CA00172D3C1C1A2D1B2D2C2D3F08DF
:100A3800C707400803110318400A0319242DC807E3
:100A4800410803110318410A03192B2DC9072C2D3E
:100A580001300310BE0CBD0CBC0CFF3E031D2D2D38
:100A680001300310C90CC80CC70CFF3E031D352DFF
:100A78000130CA02031D412D422D172D432D470871
:100A8800A0004808A1004908A2004608C200420880
:100A9800A3004B08C3004308A4000A128A15DD26E8
:100AA8000A128A11831203132008BC002108BD0012
:100AB8002208BE005F2D080079087804031D652D03
:100AC800662DCF2D831203132008A4002108A5004A
:100AD8000030A51BFF30A600A700240883160313C7
:100AE800C30783120313250803110318013E0319D2
:100AF800802D83160313C4078312031326080311DA
:100B08000318013E03198B2D83160313C50783129F
:100B18000313270803110318013E0319962D8316A2
:100B28000313C607831203138316031383120313D5
:100B38002208A4002308A5000030A51BFF30A6004A
:100B4800A700240883160313BF078312031325087D
:100B580003110318013E0319B42D83160313C007AC
:100B680083120313260803110318013E0319BF2D2E
:100B780083160313C10783120313270803110318ED
:100B8800013E0319CA2D83160313C20783120313E8
:100B980083160313352E831203132008A40021089B
:100BA800A5000030A51BFF30A600A7002408831667
:100BB8000313C30783120313250803110318013E07
:100BC8000319E92D83160313C40783120313260898
:100BD80003110318013E0319F42D83160313C507E7
:100BE80083120313270803110318013E0319FF2D6D
:100BF80083160313C6078312031383160313831282
:100C080003132208A4002308A5000030A51BFF3009
:100C1800A600A700240883160313BF028312031338
:100C28002508031C250F192E1C2E83160313C0023A
:100C3800831203132608031C260F232E262E831641
:100C48000313C102831203132708031C270F2D2E39
:100C5800302E83160313C202831203138316031361
:100C6800352E0800831203134F08D2005008D30012
:100C78005108D4000310530D540DD5005508DA005F
:100C8800DA08031D482E492E512E0030CC000030C2
:100C9800CD000030CE00FD2EFD2E4C08D2004D08B0
:100CA800D3004E08D4000310530D540DD500550839
:100CB800DB00DB08031D612E622E6A2E0030CC009B
:100CC8000030CD000030CE00FD2EFD2E0030D700C4
:100CD8000030D8000030D90089305B07D2005208B4
:100CE800DA024F08D2005008D3005108D40010305F
:100CF8000310D40CD30CD20CFF3E031D7C2E5208DB
:100D0800D5005508DB004C08D2004D08D3004E082A
:100D1800D40010300310D40CD30CD20CFF3E031DAA
:100D28008E2E5208D5005508DB068030D2005208B6
:100D3800DB05D017FF30CF05FF30D0050030D105D7
:100D4800CD17FF30CC05FF30CD050030CE0518306B
:100D5800D2005208D600B02E01300310D70DD80D9E
:100D6800D90DFF3E031DB12E4E085102031DC22EA0
:100D78004D085002031DC22E4C084F02031CC52EFD
:100D8800C62ED22E4C08CF024D08031C4D0FD002A0
:100D98004E08031C4E0AD1025714D22E01300310FC
:100DA800CF0DD00DD10DFF3E031DD32E0130D6023D
:100DB800031DDF2EE02EB02EE12E5708A0005808A4
:100DC800A1005908A2005A08D2005208A3005B08E3
:100DD800D3005308A4000A128A15DD260A128A11C4
:100DE800831203132008CC002108CD002208CE006E
:100DF800FD2E080083120313AA01A31F042F052F39
:100E0800142FA009A109A209A309A00A0319A10A7C
:100E18000319A20A0319A30AAA010314AA0D142F7D
:100E2800A71F172F182F282FA409A509A609A70956
:100E3800A40A0319A50A0319A60A0319A70A013067
:100E4800A8002808AA06282F0030AE000030AD0000
:100E58000030AC000030AB00230822042104200439
:100E68000319372F382F8C2FA9010314A90D4A2FE6
:100E78000130A8000310A00DA10DA20DA30DA80B11
:100E88003E2F0130A8002808A9074A2FA31F4D2F7D
:100E98004E2F3C2F502F502F0130A8000310AB0DC0
:100EA800AC0DAD0DAE0DA80B522F23082702031D64
:100EB800672F22082602031D672F21082502031D1C
:100EC800672F20082402031C6A2F6B2F7B2F200812
:100ED800A4022108031C210FA5022208031C220FCB
:100EE800A6022308031C230FA7022B147B2F013013
:100EF8000310A30CA20CA10CA00CFF3E031D7C2F19
:100F08000130A902031D892F8A2F502F8C2F8C2F77
:100F18002A08031D902F9C2FAB09AC09AD09AE0917
:100F2800AB0A0319AC0A0319AD0A0319AE0A9C2FC0
:100F38002E08A3002D08A2002C08A1002B08A00051
:100F4800A52F080083120313BB01B71FAC2FAD2FC9
:100F5800B62FB609B709B60A0319B70ABB010314B5
:100F6800BB0DB62F3608A0003708A100A2018E30AD
:100F7800B9003908A3003B08BA003A08A4000A12CD
:100F88008A15DD260A128A11831203132008B60077
:100F98002108B7002208B800D12F080083120313D4
:100FA800A301A401EB2F013083120313A307031835
:100FB800A40A0030A407FF30A3070318A40AFF30CF
:100FC800A4070130A3070318A40A0030A4072408C3
:100FD800803AA2002108803A2202031DF52F20083A
:0E0FE8002302031CF82FF92FD72FFA2F080031
:101A620098308316031381000230970007308312E7
:101A7200031390000800F601F701F801F90183163B
:101A82000313BF01C001C101C201C301C401C501E9
:101A9200C60183010A128A11152883120313220830
:101AA20084008317231C83130E088000840A0F0806
:101AB20080000108A400A501200884008317211CCE
:101AC200831324088000840A250880008E018F0178
:101AD200810108008316031308158C10FF30920051
:101AE2000C30831203139D009B019D121D128C105A
:101AF200043092007C2D83128C1C802D812D7C2D34
:101B02008C10831603130811882D7C2D7C2D080060
:101B1200831203132108A301A3072008A201A2072D
:101B22002308803AFF0081307F02031D9A2D003086
:101B32002202031C9D2D9E2DA42DFF308312031320
:101B4200A2000030A3008312031322089B000800A6
:101B5200831203132209A4002309A500A40A03196E
:101B6200A50A20082407A60021080318210A250730
:101B7200A700A71FBD2DBE2DC42DA609A709A60A21
:101B82000319A70AC42D2708A101A1072608A0014D
:101B9200A007CB2D080083160313AA010A128A1587
:101BA2006B250A128A150A128A1531250A128A151C
:101BB2000B178B158B160930831603138C008D01BE
:101BC200831203138C110B100B110C108B13F730B3
:101BD20083160313860083120313861183160313DD
:101BE200880108008C1DF62DF72DFE2D8316031398
:101BF2002A14831203138C115B2E0B1D012E022E4D
:101C0200142E003083160313C30701300318023069
:101C1200C407003003180130C50700300318013033
:101C2200C6070B115B2E0C1C172E182E2C2E003003
:101C320083160313BF07003003180130C0070130B9
:101C420003180230C107003003180130C2078312A3
:101C520003130C105B2E0B1C2F2E302E502E031054
:101C6200861A0314003003180130F000F1017908DC
:101C72007106031D3E2E780870060319412E422E6E
:101C8200462E83160313AA154E2E831603138801BC
:101C9200E0308312031388004E2E0B105B2E831646
:101CA20003138801F0308312031388005B2E5B2E2E
:101CB2005B2E5B2E75088312FF0074088A0073087E
:101CC2008400720E8300FE0E7E0E0900831203133F
:101CD200AE01A91F6D2E6E2E772EA809A909A80A9A
:101CE2000319A90AAE010314AE0D772EAB1F7A2E8B
:101CF2007B2E852EAA09AB09AA0A0319AB0A013069
:101D0200AC002C08AE06852EAF01B00129082804CC
:101D120003198C2E8D2ECB2EAD010314AD0D9D2EED
:101D220001300310A80DA90DFF3E031D922E0130B4
:101D3200AC002C08AD079D2EA91FA02EA12E912E1E
:101D4200A32EA32E01300310AF0DB00DFF3E031DD5
:101D5200A42E29082B02031DB02E28082A02031CD8
:101D6200B32EB42EBC2E2808AA022908031CAB03EA
:101D7200AB022F14BC2E01300310A90CA80CFF3E9D
:101D8200031DBD2E0130AD02031DC82EC92EA32E88
:101D9200CB2ECB2E2E08031DCF2ED52EAF09B00988
:101DA200AF0A0319B00AD52E3008A901A9072F08D6
:101DB200A801A807DC2E0800831203132308031DC1
:101DC200E32EEB2E220821042004031DE92EEA2E25
:101DD200012FEB2E0030A0000030A1000030A20045
:101DE200592F592F012F0130A5002508A3070130D3
:101DF2000310A20CA10CA00CFF3E031DF92E012F13
:101E0200FE302205031D062F072FF42E1F2F1F2F32
:101E12000130A5002508A3070130A00700300318F0
:101E22000130A107003003180130A207013003106E
:101E3200A20CA10CA00CFF3E031D182FFF3022059F
:101E4200031D242F252F092F322F322F0130A302F9
:101E520001300310A00DA10DA20DFF3E031D2A2F7C
:101E6200322FA11F352F362F272F2318392F3A2F24
:101E7200402FFF30A0057F30A105FF30A2050310DF
:101E8200A30C2308A500A601A70110300310A50D7D
:101E9200A60DA70DFF3E031D472F2508A004260807
:101EA200A1042708A2042408031D582F592FA217A2
:101EB2000800831203132808AC002908AD002A0881
:101EC200AE0003102D0D2E0DAF002F08B500B50882
:101ED200031D6C2F6D2F772F0030AB000030AA004E
:101EE2000030A9000030A800FF2FFF2F2808AC0007
:101EF2002908AD002A08AE0017300310AE0CAD0C55
:101F0200AC0CFF3E031D7E2F2C08AF002F08B00043
:101F1200A917FF30A805FF30A9050030AA05280837
:101F2200B1002908B2002A08B300B4018E30B5020C
:101F3200B51F9C2F9D2FC22F3508803A8F3E031864
:101F4200A32FA42FAF2F0030AB000030AA00003027
:101F5200A9000030A800FF2FFF2FAF2F0130031080
:101F6200B40CB30CB20CB10CFF3E031DB02F013008
:101F7200AC002C08B507031DBF2FC02FAF2FE62FD3
:101F8200E62F18303502031CC72FC82FDF2F003071
:101F9200AB000030AA000030A9000030A800FF2FDB
:101FA200FF2FDF2F0130AC000310B10DB20DB30DC6
:101FB200B40DAC0BD52F0130B502DF2FB508031DD0
:101FC200E32FE42FD32FE62FE62F3008031DEA2F4D
:101FD200F62FB109B209B309B409B10A0319B20A59
:101FE2000319B30A0319B40AF62F3408AB003308F5
:0E1FF200AA003208A9003108A800FF2F08003D
:02400E00F4F4C8
:00000001FF
