:060000000A128A11122809
:10000800FE00030EF6000408F7000A08F800831241
:1000180003137F08F9000A128A115C2D0A128A114B
:10002800C82D83120313E701E801DF01E001DD01B8
:10003800DE010A128A1137260A128A113230831217
:100048000313E9000030EA008B120A128A1106260F
:100058000A128A118B16831203138E018F0134281A
:1000680083120E088800831603132A1C3C283D2897
:100078007028831203136C08D900DA015908E900C3
:100088005A08EA006B08D900DA015908A0005A0892
:10009800A1000A128A110F270A128A118312031368
:1000A8006C08D900DA015908A0005A08A1000A1200
:1000B8008A11B5260A128A1183160313AE01AF01FD
:1000C80083120313E501E601DB01DC01DF01E00136
:1000D800831603132A107028AA1D732874289928D8
:1000E80067300A128A113B270A128A1183120313F6
:1000F8006808A101A1076708A001A0070A128A11D0
:1001080090260A128A11031083120313861A031405
:10011800003003180130D900DA015908ED005A08F7
:10012800EE0083160313AA119928AA1C9C289D285F
:10013800342867300A128A113B270A128A1183125F
:1001480003136808A101A1076708A001A0070A1204
:100158008A1190260A128A11831203136709D9009B
:100168006809DA00D90A0319DA0A69085907E300A5
:100178006A0803186A0A5A07E40063086507E50075
:1001880064080318640A6607E6006608803AFF00F8
:1001980080307F02031DD228C9306502031CD52890
:1001A800D628DD28C83083120313E5000030E600A6
:1001B800F428831203136608803AFF007F307F0219
:1001C800031DE828383065020318EB28EC28F428CA
:1001D800383083120313E500FF30E600F428F428D2
:1001E800831203136408B701B7076308B601B6079B
:1001F8000A128A1164260A128A1183120313360816
:10020800BF003708C0003808C1000030BC004030CB
:10021800BD004030BE000A128A11C4220A128A1197
:10022800831203133C08CF003D08D0003E08D100DC
:100238006608B701B7076508B601B6070A128A113A
:1002480064260A128A11831203133608BF0037087E
:10025800C0003808C100CD30BC00CC30BD003E30F5
:10026800BE000A128A11C4220A128A1183120313C9
:100278003C08CC003D08CD003E08CE000A128A1189
:100288007E210A128A11831203134C08A8004D0814
:10029800A9004E08AA000A128A11B2230A128A116A
:1002A800831203132908E201E2072808E101E107A4
:1002B8006408E001E0076308DF01DF0764086304FE
:1002C8000319672968296F296208DE01DE076108BA
:1002D800DD01DD076F29831603132E08831203132C
:1002E800880083160313AA103428342834280A12E5
:1002F8008A111228831203134C08D2004D08D30028
:100308004E08D4000310530D540DD5005508D800DD
:100318004F08D2005008D3005108D4000310530DE1
:10032800540DD5005508D7005808031D9C29AD2940
:10033800570858020318A129A229B5295803FF3ADA
:100348005707D20019305202031CAB29AC29B52932
:10035800AD294F08CC005008CD005108CE00C32A63
:10036800C32A5708031DB929C92958085702031871
:10037800BE29BF29CA295703FF3A5807D2001930A6
:100388005202031CC829C929CA29C32A0630D20027
:100398005208D600CE1FD129D229D329D617D11F6A
:1003A800D629D729D8295617CD17FF30CC05FF30C5
:1003B800CD050030CE05D017FF30CF05FF30D00572
:1003C8000030D105570858020318EB29EC291D2ADB
:1003D800ED2901300310CF0DD00DD10DFF3E031DC7
:1003E800EE290130D702570858060319FC29FD29C0
:1003F800152A0130D60256080739031D042A052A92
:10040800ED29152A152A152A01300310CE0CCD0C1A
:10041800CC0CFF3E031D092A0130D2005208D80730
:10042800152A58085706031D1A2A1B2A082A542A6F
:10043800542A580857020318222A232A542A242AFD
:1004480001300310CC0DCD0DCE0DFF3E031D252A26
:100458000130D802570858060319332A342A4C2A7F
:100468000130D60256080739031D3B2A3C2A242AA4
:100478004C2A4C2A4C2A01300310D10CD00CCF0C3A
:10048800FF3E031D402A0130D2005208D7074C2AEC
:1004980058085706031D512A522A3F2A542A542A1B
:1004A800D61F572A582A692AFF30CC06FF30CD06B6
:1004B800FF30CE060130CC07003003180130CD07DD
:1004C800003003180130CE07692A561F6C2A6D2A9E
:1004D8007E2AFF30CF06FF30D006FF30D10601302C
:1004E800CF07003003180130D0070030031801305F
:1004F800D1077E2AD6014C08CF074D0803110318EF
:100508004D0A0319882AD0074E08031103184E0A0A
:1005180003198F2AD107D11F922A932AA72AFF30BD
:10052800CF06FF30D006FF30D1060130CF070030AC
:1005380003180130D007003003180130D107D60165
:100548000314D60DA72A4F08A0005008A10051088F
:10055800A2005808D2005208A3005608D300530836
:10056800A4000A128A11DF240A128A1183120313C3
:100578002008CC002108CD002208CE00C32A08009C
:10058800831203133C08C2003D08C3003E08C400A0
:100598000310430D440DC5004508C600C608031DD9
:1005A800D62AD72ADF2A0030BC000030BD00003030
:1005B800BE00B12BB12B3F08C2004008C300410860
:1005C800C4000310430D440DC5004508CB00CB08FB
:1005D800031DEF2AF02AF82A0030BC000030BD00C5
:1005E8000030BE00B12BB12B4B087B3EC200420845
:1005F800C6073C08C2003D08C3003E08C4001030CE
:100608000310C40CC30CC20CFF3E031D042B42088C
:10061800C5004508CB003F08C2004008C300410898
:10062800C40010300310C40CC30CC20CFF3E031DE1
:10063800162B4208C5004508CB068030C200420888
:10064800CB05BD17C017FF30BF05FF30C005003010
:10065800C1050030C7000030C8000030C9000730AD
:10066800C2004208CA00382B3C1C3B2B3C2B4D2BAC
:100678003F08C707400803110318400A0319452B10
:10068800C807410803110318410A03194C2BC9076D
:100698004D2B01300310BE0CBD0CBC0CFF3E031DDE
:1006A8004E2B01300310BF0DC00DC10DFF3E031DC1
:1006B800562B0130CA02031D622B632B382B642B87
:1006C8000930C2004208CA00692B3C1C6C2B6D2BF8
:1006D8007E2B3F08C707400803110318400A031977
:1006E800762BC807410803110318410A03197D2B0B
:1006F800C9077E2B01300310BE0CBD0CBC0CFF3E9D
:10070800031D7F2B01300310C90CC80CC70CFF3E1A
:10071800031D872B0130CA02031D932B942B692BD1
:10072800952B4708A0004808A1004908A2004608E0
:10073800C2004208A3004B08C3004308A4000A12E1
:100748008A11DF240A128A11831203132008BC00BD
:100758002108BD002208BE00B12B08008312031334
:100768002808AC002908AD002A08AE0003102D0D9A
:100778002E0DAF002F08B500B508031DC42BC52BDF
:10078800CF2B0030AB000030AA000030A9000030A9
:10079800A800572C572C2808AC002908AD002A08B7
:1007A800AE0017300310AE0CAD0CAC0CFF3E031DB1
:1007B800D62B2C08AF002F08B000A917FF30A805CA
:1007C800FF30A9050030AA052808B1002908B200A1
:1007D8002A08B300B4018E30B502B51FF42BF52BEF
:1007E8001A2C3508803A8F3E0318FB2BFC2B072C5C
:1007F8000030AB000030AA000030A9000030A8008B
:10080800572C572C072C01300310B40CB30CB20C26
:10081800B10CFF3E031D082C0130AC002C08B507B5
:10082800031D172C182C072C3E2C3E2C1830350293
:10083800031C1F2C202C372C0030AB000030AA00E2
:100848000030A9000030A800572C572C372C013055
:10085800AC000310B10DB20DB30DB40DAC0B2D2CC3
:100868000130B502372CB508031D3B2C3C2C2B2C32
:100878003E2C3E2C3008031D422C4E2CB109B209E7
:10088800B309B409B10A0319B20A0319B30A03195F
:10089800B40A4E2C3408AB003308AA003208A90069
:1008A8003108A800572C0800F201F3010130F207C3
:1008B8000318F30A0030F3078316031314082439C6
:1008C800203A031D682C692C782C83120313130813
:1008D800F1007A08AB3E8400710883138000013070
:1008E800F1007108FA07CD2C831603131408243974
:1008F800031D7F2C802C842C831203139301CD2C91
:100908008316031314082439043A031D8C2C8D2CE8
:10091800982C831203136C08F10071070A128A11CC
:1009280054270A128A11CD2C8316031314080C3984
:100938000C3A031DA02CA12CCD2C831203131308F1
:10094800F1007108FB007B08013A031DAC2CAD2CAB
:10095800B42C14300A128A1154270A128A11CD2C89
:100968007B08023A031DB92CBA2CC12C14300A1288
:100978008A1154270A128A11CD2C14300A128A11AE
:1009880054270A128A11CD2CCD2CCD2CCD2CCD2C50
:10099800CD2C831203138C117A08033A031DD52C2E
:1009A800D62CDE2CFA010A128A1126270A128A117D
:1009B800DE2CDE2C0800831203132308031DE52C0C
:1009C800ED2C220821042004031DEB2CEC2C032D14
:1009D800ED2C0030A0000030A1000030A2005B2DFB
:1009E8005B2D032D0130A5002508A3070130031056
:1009F800A20CA10CA00CFF3E031DFB2C032DFE3006
:100A08002205031D082D092DF62C212D212D01303D
:100A1800A5002508A3070130A007003003180130FE
:100A2800A107003003180130A20701300310A20CFF
:100A3800A10CA00CFF3E031D1A2DFF302205031D3B
:100A4800262D272D0B2D342D342D0130A3020130F6
:100A58000310A00DA10DA20DFF3E031D2C2D342D5A
:100A6800A11F372D382D292D23183B2D3C2D422D24
:100A7800FF30A0057F30A105FF30A2050310A30CAD
:100A88002308A500A601A70110300310A50DA60D87
:100A9800A70DFF3E031D492D2508A0042608A10423
:100AA8002708A2042408031D5A2D5B2DA21708004D
:100AB8008C1D5F2D602D692D831603132A140A12CD
:100AC8008A1158240A128A11BB2D0B1D6C2D6D2D0D
:100AD800862D8316031333083106031D752D32083E
:100AE8003006031D782D792D7D2DAA14B001B10192
:100AF800842D0130B0070318B10A0030B107842DE6
:100B08000B11BB2D0C1C892D8A2D8C2D0C10BB2D87
:100B18000B1C8F2D902DB02D0310861A0314003056
:100B280003180130F400F5016E087506031D9E2DAB
:100B38006D0874060319A12DA22DA62D8316031383
:100B4800AA15AE2D83160313880190308312031360
:100B58008800AE2D0B10BB2D831603138801F030CF
:100B6800831203138800BB2DBB2DBB2DBB2D790829
:100B780083120313FF0078088A0077088400760E32
:100B88008300FE0E7E0E0900FA01FB01FC01E9015B
:100B9800EA01EB01EC0183160313AB01AC01AD01D3
:100BA800AE01AF01B001B101831603170A128A1111
:100BB8005F270A128A1190000A128A1160270A1206
:100BC8008A119100831603130A128A1161270A12E7
:100BD8008A11B2000A128A1162270A128A11B30016
:100BE800831203130A128A115D270A128A11ED0073
:100BF8000A128A115E270A128A11EE0083010A126C
:100C08008A11152883120313A001A1012108803A33
:100C1800FF0080307F02031D132E4D302002031C7D
:100C2800162E172E1B2E362E362E1B2E00000B1DB1
:100C38001E2E1F2E1A2E0B11013083120313A0072C
:100C48000318A10A0030A1072108803AFF0080306C
:100C58007F02031D312E4D302002031C342E352E09
:100C68001B2E362E080083160313AA010A128A11B6
:100C7800D5260A128A110A128A1149270A128A11DC
:100C880004300A128A11F3260A128A110B178B15DF
:100C98008B160930831603138C008D0183120313FE
:100CA8008C110B100B110C108B17F73083160313D4
:100CB8008600831203138615831603138801080020
:100CC80083120313BB01B71F6A2E6B2E742EB6094D
:100CD800B709B60A0319B70ABB010314BB0D742E72
:100CE8003608A0003708A100A2018E30B9003908E3
:100CF800A3003B08BA003A08A4000A128A11DF24AC
:100D08000A128A11831203132008B6002108B700BB
:100D18002208B8008F2E08000130831203136D06D5
:100D28006E04031D982E992EA62E200883160313F1
:100D3800AE070318AF0A831203132108831603139F
:100D4800AF07B42E8312200883160313AE02831252
:100D58000313210883160313031CAF03AF02B42E39
:100D68000800831203132108A301A3072008A20186
:100D7800A2072308803AFF0081307F02031DC62E98
:100D880000302202031CC92ECA2ED02EFF30831237
:100D98000313A2000030A3008312031322089B0050
:100DA80008008316031308158C10FF3092000C30CE
:100DB800831203139D009B019D121D128C10043099
:100DC8009200E62E83128C1CEA2EEB2EE62E8C1057
:100DD800831603130811F22EE62EE62E080083125E
:100DE8000313A0008316031307178717831203132F
:100DF80094168316031314139413831203131416EF
:100E080014109414141594112008831603139300D6
:100E1800FA01FC0108008312031321082004031DB2
:100E2800162F172F192F8615252F0130200621047C
:100E3800031D1F2F202F222F8611252F8615252FC2
:100E4800252F0800272F831603132C08F00070089D
:100E580083120313EC00831603132D08F0007008A7
:100E680083120313EB003A2F3A2F272F080083121F
:100E78000313A000200884000E0883138000840A4E
:100E88000F0880008E018F01080097308316031326
:100E98008100023097000730831203139000080086
:100EA800F0007008831203139300141214165C2FB9
:0E0EB8000800013400340134003408340034E2
:02400E00F2F4CA
:00000001FF
