:060000000A128A11122809
:10000800FE00030EF6000408F7000A08F800831241
:1000180003137F08F9000A128A1117290A128A1194
:100028003B2A83120313B001B101B201B301A80145
:10003800A901AE01AF010A128A1169210A128A11B7
:100048001E3083120313BF000030C0000030A00030
:100058000030A1000A128A1196210A128A11342846
:10006800831203130E0888004208A600A701260879
:10007800A0002708A1000A128A1196210A128A11E3
:10008800831203134108A600A7012608BB0027080E
:10009800BC003C08A101A1073B08A001A0070A1267
:1000A8008A1124220A128A11831603132A1C5D2836
:1000B8005E286C2883120313B901BA01AA01AB01A7
:1000C800AC01AD01AE01AF01831603132A106C28F1
:1000D800AA1D6F287028342883120313340884005B
:1000E80083130008A000840A0008A10035088400D2
:1000F8000008A200840A0008A3000A128A11D42169
:100108000A128A11831203133108A101A1073008CA
:10011800A001A0073308A301A3073208A201A20780
:100128000A128A110D220A128A110310831203136C
:10013800861A0314003003180130A600A701260808
:10014800BD002708BE0083160313AA1134283428DB
:1001580034280A128A111228831603131408243922
:10016800203A031DB828B928C82883120313130896
:10017800F3007A08363E8400730883138000013048
:10018800F3007308FA0705298316031314082439A2
:10019800031DCF28D028D4288312031393010529DF
:1001A8008316031314082439043A031DDC28DD28B8
:1001B800DF280529052914080C390C3A031DE52800
:1001C800E6280529FC08031DEA28EB28F728FC0186
:1001D8000314FC0D8312031339080A128A114F22E3
:1001E8000A128A110529FC01831203133A080A121C
:1001F8008A114F220A128A1105290529052905297C
:100208000529831203138C117A08033A031D0D295B
:100218000E291629FA010A128A115F220A128A1176
:100228001629162908008C1D1A291B2921290A12AA
:100238008A11B0200A128A115C290B1D242925294C
:1002480027290B115C290C1C2A292B292D290C1074
:100258005C290B1C3029312951290310861A0314F3
:10026800003003180130F400F5013E087506031D3F
:100278003F293D0874060319422943294729831653
:100288000313AA154F29831603138801E03083123C
:10029800031388004F290B105C2983160313880168
:1002A800F0308312031388005C295C295C295C29DF
:1002B800790883120313FF0078088A0077088400FE
:1002C800760E8300FE0E7E0E090083160313AA0124
:1002D8000A128A11B6210A128A110A128A116E228A
:1002E8000A128A1110300A128A11F1210A128A118F
:1002F8000B178B158B120930831603138C008D0195
:10030800831203138C110B100B110C108B17F73081
:1003180083160313860083120313861183160313AF
:1003280088010800831203132108A301A3072008EA
:10033800A201A2072308803AFF0081307F02031D33
:10034800A72900302202031CAA29AB29B129FF30B2
:1003580083120313A2000030A300831203132208A0
:100368009B0008008316031308158C10FF309200B9
:100378000C30831203139D009B019D121D128C10DB
:1003880004309200C72983128C1CCB29CC29C72999
:100398008C10831603130811D329C729C72908000D
:1003A80083120313220884008317231C83130E0867
:1003B8008000840A0F0880000108A400A501200815
:1003C80084008317211C831324088000840A2508CD
:1003D80080008E018F018101080083120313A000A1
:1003E80083160313071787178312031394168316AC
:1003F8000313141394138312031314161410941470
:10040800141594112008831603139300FA01FC01B4
:100418000800831203133E083D04031D142A152AFD
:100428001C2A2208B9070318BA0A2308BA07232A7C
:100438002208B9022308031CBA03BA02232A0800B7
:100448008312031321082004031D2B2A2C2A2E2A89
:1004580086113A2A013020062104031D342A352A40
:10046800372A86153A2A86113A2A3A2A0800FA01C2
:10047800FB01FC01B601B701B801B901BA01BB0122
:10048800BC01BD01BE01BF01C001C101C2018301A0
:100498000A128A111528F200F001F1010130F00763
:1004A8000318F10A0030F10772088312031393004E
:1004B80014165E2A0800602A831203133708F00016
:1004C8007008C2003808F0007008C1006D2A6D2A53
:1004D800602A0800973083160313810002309700C2
:0A04E8000730831203139000080090
:02400E00F2F4CA
:00000001FF
