:060000000A128A11122809
:10000800FE00030EF8000408F9000A08FA0083123B
:1000180003137F08FB000A128A111F290A128A118A
:10002800432A83120313B001B101B201B301A8013D
:10003800A901AE01AF010A128A1171210A128A11AF
:100048001E3083120313BF000030C0000030A00030
:100058000030A1000A128A119E210A128A1134283E
:10006800831203130E0888004308A600A701260878
:10007800A0002708A1000A128A119E210A128A11DB
:10008800831203134108A600A7012608BB0027080E
:10009800BC003C08A101A1073B08A001A0070A1267
:1000A8008A112C220A128A11831603132A1C5D282E
:1000B8005E286C2883120313B901BA01AA01AB01A7
:1000C800AC01AD01AE01AF01831603132A106C28F1
:1000D800AA1D6F287028342883120313340884005B
:1000E80083130008A000840A0008A10035088400D2
:1000F8000008A200840A0008A3000A128A11DC2161
:100108000A128A11831203133108A101A1073008CA
:10011800A001A0073308A301A3073208A201A20780
:100128000A128A1115220A128A1103108312031364
:10013800861A0314003003180130A600A701260808
:10014800BD002708BE0083160313AA1134283428DB
:1001580034280A128A111228F401F5010130F40733
:100168000318F50A0030F507831603131408243919
:10017800203A031DC028C128D0288312031313086E
:10018800F3007C08363E8400730883138000013036
:10019800F3007308FC070D29831603131408243988
:1001A800031DD728D828DC288312031393010D29AF
:1001B8008316031314082439043A031DE428E52898
:1001C800E7280D290D2914080C390C3A031DED28D0
:1001D800EE280D29FD08031DF228F328FF28FD014C
:1001E8000314FD0D8312031339080A128A115722CA
:1001F8000A128A110D29FD01831203133A080A1203
:100208008A1157220A128A110D290D290D290D2943
:100218000D29831203138C117C08033A031D152939
:1002280016291E29FC010A128A1167220A128A114C
:100238001E291E2908008C1D2229232929290A1272
:100248008A11B0200A128A1164290B1D2C292D2924
:100258002F290B1164290C1C3229332935290C103C
:1002680064290B1C3829392959290310861A0314C3
:10027800003003180130F600F7013E087706031D29
:1002880047293D08760603194A294B294F29831621
:100298000313AA155729831603138801E030831224
:1002A8000313880057290B10642983160313880148
:1002B800F0308312031388006429642964296429AF
:1002C8007B0883120313FF007A088A0079088400E8
:1002D800780E8300FE0E7E0E090083160313AA0112
:1002E8000A128A11BE210A128A110A128A1176226A
:1002F8000A128A1110300A128A11F9210A128A1177
:100308000B178B158B120930831603138C008D0184
:10031800831203138C110B100B110C108B17F73071
:10032800831603138600831203138611831603139F
:1003380088010800831203132108A301A3072008DA
:10034800A201A2072308803AFF0081307F02031D23
:10035800AF2900302202031CB229B329B929FF3082
:1003680083120313A2000030A30083120313220890
:100378009B0008008316031308158C10FF309200A9
:100388000C30831203139D009B019D121D128C10CB
:1003980004309200CF2983128C1CD329D429CF2969
:1003A8008C10831603130811DB29CF29CF290800E5
:1003B80083120313220884008317231C83130E0857
:1003C8008000840A0F0880000108A400A501200805
:1003D80084008317211C831324088000840A2508BD
:1003E80080008E018F018101080083120313A00091
:1003F800831603130717871783120313941683169C
:10040800031314139413831203131416141094145F
:10041800141594112008831603139300FC01FD01A1
:100428000800831203133E083D04031D1C2A1D2ADD
:10043800242A2208B9070318BA0A2308BA072B2A5C
:100448002208B9022308031CBA03BA022B2A08009F
:100458008312031321082004031D332A342A362A61
:100468008611422A013020062104031D3C2A3D2A18
:100478003F2A8615422A8611422A422A0800FC0190
:10048800FD01B601B701B801B901BA01BB01BC0150
:10049800BD01BE01BF01C001C101C201C301830189
:1004A8000A128A111528F200F001F1010130F00753
:1004B8000318F10A0030F10772088312031393003E
:1004C8001416662A0800682A831203133708F000F6
:1004D8007008C3003808F0007008C100752A752A32
:1004E800682A0800973083160313810002309700AA
:0A04F8000730831203139000080080
:02400E00F2F4CA
:00000001FF
