:060000000A128A11122809
:10000800FE00030EF6000408F7000A08F800831241
:1000180003137F08F9000A128A11682D0A128A113F
:10002800D42D83120313E701E801DF01E001DD01AC
:10003800DE010A128A1143260A128A11323083120B
:100048000313E9000030EA008B120A128A11122603
:100058000A128A118B16831203138E018F0134281A
:1000680083120E0888006C08D900DA015908A0002C
:100078005A08A1000A128A11C1260A128A11831687
:1000880003132A1C482849287C28831203136C0868
:10009800D900DA015908E9005A08EA006B08D900C2
:1000A800DA015908A0005A08A1000A128A111B2770
:1000B8000A128A11831203136C08D900DA0159084D
:1000C800A0005A08A1000A128A11C1260A128A1130
:1000D80083160313AE01AF0183120313E501E60192
:1000E800DB01DC01DF01E001831603132A107C2801
:1000F800AA1D7F288028A52867300A128A11472759
:100108000A128A11831203136808A101A10767085C
:10011800A001A0070A128A119C260A128A1103104C
:1001280083120313861A0314003003180130D90010
:10013800DA015908ED005A08EE0083160313AA11D4
:10014800A528AA1CA828A928342867300A128A11C9
:1001580047270A128A11831203136808A101A1070D
:100168006708A001A0070A128A119C260A128A11A0
:10017800831203136709D9006809DA00D90A031939
:10018800DA0A69085907E3006A0803186A0A5A076D
:10019800E40063086507E50064080318640A660755
:1001A800E6006608803AFF0080307F02031DDE28E3
:1001B800C9306502031CE128E228E928C830831207
:1001C8000313E5000030E6000029831203136608D4
:1001D800803AFF007F307F02031DF4283830650223
:1001E8000318F728F8280029383083120313E5008C
:1001F800FF30E60000290029831203136408B701C1
:10020800B7076308B601B6070A128A1170260A12E0
:100218008A11831203133608BF003708C000380854
:10022800C1000030BC004030BD004030BE000A12A2
:100238008A11D0220A128A11831203133C08CF00B4
:100248003D08D0003E08D1006608B701B707650829
:10025800B601B6070A128A1170260A128A11831289
:1002680003133608BF003708C0003808C100CD3076
:10027800BC00CC30BD003E30BE000A128A11D0222C
:100288000A128A11831203133C08CC003D08CD00E2
:100298003E08CE000A128A118A210A128A11831294
:1002A80003134C08A8004D08A9004E08AA000A121A
:1002B8008A11BE230A128A11831203132908E20144
:1002C800E2072808E101E1076408E001E0076308A4
:1002D800DF01DF07640863040319732974297B2984
:1002E8006208DE01DE076108DD01DD077B29831670
:1002F80003132E0883120313880083160313AA100E
:100308003428342834280A128A1112288312031335
:100318004C08D2004D08D3004E08D4000310530DEA
:10032800540DD5005508D8004F08D2005008D30006
:100338005108D4000310530D540DD5005508D700AB
:100348005808031DA829B929570858020318AD29C8
:10035800AE29C1295803FF3A5707D2001930520273
:10036800031CB729B829C129B9294F08CC0050085E
:10037800CD005108CE00CF2ACF2A5708031DC52922
:10038800D529580857020318CA29CB29D629570353
:10039800FF3A5807D20019305202031CD429D52934
:1003A800D629CF2A0630D2005208D600CE1FDD2922
:1003B800DE29DF29D617D11FE229E329E4295617B8
:1003C800CD17FF30CC05FF30CD050030CE05D01756
:1003D800FF30CF05FF30D0050030D105570858024F
:1003E8000318F729F829292AF92901300310CF0D14
:1003F800D00DD10DFF3E031DFA290130D702570851
:1004080058060319082A092A212A0130D602560853
:100418000739031D102A112AF929212A212A212AFC
:1004280001300310CE0CCD0CCC0CFF3E031D152A59
:100438000130D2005208D807212A58085706031D50
:10044800262A272A142A602A602A580857020318DD
:100458002E2A2F2A602A302A01300310CC0DCD0D08
:10046800CE0DFF3E031D312A0130D8025708580629
:1004780003193F2A402A582A0130D602560807395C
:10048800031D472A482A302A582A582A582A013050
:100498000310D10CD00CCF0CFF3E031D4C2A0130A9
:1004A800D2005208D707582A58085706031D5D2A54
:1004B8005E2A4B2A602A602AD61F632A642A752A74
:1004C800FF30CC06FF30CD06FF30CE060130CC071A
:1004D800003003180130CD07003003180130CE0773
:1004E800752A561F782A792A8A2AFF30CF06FF30C4
:1004F800D006FF30D1060130CF0700300318013095
:10050800D007003003180130D1078A2AD6014C08D9
:10051800CF074D08031103184D0A0319942AD00771
:100528004E08031103184E0A03199B2AD107D11F3D
:100538009E2A9F2AB32AFF30CF06FF30D006FF300D
:10054800D1060130CF07003003180130D007003042
:1005580003180130D107D6010314D60DB32A4F086A
:10056800A0005008A1005108A2005808D200520863
:10057800A3005608D3005308A4000A128A11EB24DA
:100588000A128A11831203132008CC002108CD0017
:100598002208CE00CF2A0800831203133C08C200A9
:1005A8003D08C3003E08C4000310430D440DC500B8
:1005B8004508C600C608031DE22AE32AEB2A0030D4
:1005C800BC000030BD000030BE00BD2BBD2B3F0875
:1005D800C2004008C3004108C4000310430D440D85
:1005E800C5004508CB00CB08031DFB2AFC2A042BB9
:1005F8000030BC000030BD000030BE00BD2BBD2B5C
:100608004B087B3EC2004208C6073C08C2003D08B2
:10061800C3003E08C40010300310C40CC30CC20C45
:10062800FF3E031D102B4208C5004508CB003F08BC
:10063800C2004008C3004108C40010300310C40CB5
:10064800C30CC20CFF3E031D222B4208C5004508FF
:10065800CB068030C2004208CB05BD17C017FF305B
:10066800BF05FF30C0050030C1050030C7000030AD
:10067800C8000030C9000730C2004208CA00442B35
:100688003C1C472B482B592B3F08C7074008031130
:100698000318400A0319512BC8074108031103180E
:1006A800410A0319582BC907592B01300310BE0CF6
:1006B800BD0CBC0CFF3E031D5A2B01300310BF0DAF
:1006C800C00DC10DFF3E031D622B0130CA02031D80
:1006D8006E2B6F2B442B702B0930C2004208CA00C6
:1006E800752B3C1C782B792B8A2B3F08C7074008B1
:1006F80003110318400A0319822BC8074108031184
:100708000318410A0319892BC9078A2B01300310E2
:10071800BE0CBD0CBC0CFF3E031D8B2B013003101F
:10072800C90CC80CC70CFF3E031D932B0130CA022D
:10073800031D9F2BA02B752BA12B4708A000480851
:10074800A1004908A2004608C2004208A3004B08BD
:10075800C3004308A4000A128A11EB240A128A1162
:10076800831203132008BC002108BD002208BE0024
:10077800BD2B0800831203132808AC002908AD001C
:100788002A08AE0003102D0D2E0DAF002F08B5005E
:10079800B508031DD02BD12BDB2B0030AB0000306C
:1007A800AA000030A9000030A800632C632C280898
:1007B800AC002908AD002A08AE0017300310AE0CB3
:1007C800AD0CAC0CFF3E031DE22B2C08AF002F082C
:1007D800B000A917FF30A805FF30A9050030AA0509
:1007E8002808B1002908B2002A08B300B4018E30E5
:1007F800B502B51F002C012C262C3508803A8F3EF7
:100808000318072C082C132C0030AB000030AA006A
:100818000030A9000030A800632C632C132C013091
:100828000310B40CB30CB20CB10CFF3E031D142C16
:100838000130AC002C08B507031D232C242C132CE5
:100848004A2C4A2C18303502031C2B2C2C2C432CF8
:100858000030AB000030AA000030A9000030A8002A
:10086800632C632C432C0130AC000310B10DB20D86
:10087800B30DB40DAC0B392C0130B502432CB508BF
:10088800031D472C482C372C4A2C4A2C3008031DB2
:100898004E2C5A2CB109B209B309B409B10A03198B
:1008A800B20A0319B30A0319B40A5A2C3408AB0064
:1008B8003308AA003208A9003108A800632C0800F0
:1008C800F201F3010130F2070318F30A0030F307CD
:1008D8008316031314082439203A031D742C752C2D
:1008E800842C831203131308F1007A08AB3E8400AA
:1008F8007108831380000130F1007108FA07D92CC0
:100908008316031314082439031D8B2C8C2C902C6C
:10091800831203139301D92C831603131408243963
:10092800043A031D982C992CA42C831203136C08E9
:10093800F10071070A128A1160270A128A11D92C4C
:100948008316031314080C390C3A031DAC2CAD2C78
:10095800D92C831203131308F1007108FB007B08DC
:10096800013A031DB82CB92CC02C14300A128A1174
:1009780060270A128A11D92C7B08023A031DC52C5C
:10098800C62CCD2C14300A128A1160270A128A113B
:10099800D92C14300A128A1160270A128A11D92C0C
:1009A800D92CD92CD92CD92CD92C831203138C11DE
:1009B8007A08033A031DE12CE22CEA2CFA010A1208
:1009C8008A1132270A128A11EA2CEA2C08008312AB
:1009D80003132308031DF12CF92C220821042004F9
:1009E800031DF72CF82C0F2DF92C0030A000003037
:1009F800A1000030A200672D672D0F2D0130A50042
:100A08002508A30701300310A20CA10CA00CFF3E7F
:100A1800031D072D0F2DFE302205031D142D152D46
:100A2800022D2D2D2D2D0130A5002508A3070130FD
:100A3800A007003003180130A10700300318013067
:100A4800A20701300310A20CA10CA00CFF3E031D4D
:100A5800262DFF302205031D322D332D172D402D55
:100A6800402D0130A30201300310A00DA10DA20DED
:100A7800FF3E031D382D402DA11F432D442D352D3C
:100A88002318472D482D4E2DFF30A0057F30A10596
:100A9800FF30A2050310A30C2308A500A601A70197
:100AA80010300310A50DA60DA70DFF3E031D552DF3
:100AB8002508A0042608A1042708A2042408031D69
:100AC800662D672DA21708008C1D6B2D6C2D752DBA
:100AD800831603132A140A128A1164240A128A112B
:100AE800C72D0B1D782D792D922D831603133308EE
:100AF8003106031D812D32083006031D842D852DF6
:100B0800892DAA14B001B101902D0130B007031846
:100B1800B10A0030B107902D0B11C72D0C1C952D73
:100B2800962D982D0C10C72D0B1C9B2D9C2DBC2D84
:100B38000310861A0314003003180130F400F5017D
:100B48006E087506031DAA2D6D0874060319AD2DD0
:100B5800AE2DB22D83160313AA15BA2D83160313CF
:100B680088019030831203138800BA2D0B10C72D0B
:100B7800831603138801F030831203138800C72DEE
:100B8800C72DC72DC72D790883120313FF007808D6
:100B98008A0077088400760E8300FE0E7E0E090018
:100BA800FA01FB01FC01E901EA01EB01EC01831602
:100BB8000313AB01AC01AD01AE01AF01B001B1014E
:100BC800831603170A128A116B270A128A119000DA
:100BD8000A128A116C270A128A11910083160313CC
:100BE8000A128A116D270A128A11B2000A128A1192
:100BF8006E270A128A11B300831203130A128A118C
:100C080069270A128A11ED000A128A116A270A1244
:100C18008A11EE0083010A128A1115288312031320
:100C2800A001A1012108803AFF0080307F02031D46
:100C38001F2E4D302002031C222E232E272E422E3B
:100C4800422E272E00000B1D2A2E2B2E262E0B118E
:100C5800013083120313A0070318A10A0030A1076B
:100C68002108803AFF0080307F02031D3D2E4D3061
:100C78002002031C402E412E272E422E08008316E8
:100C88000313AA010A128A11E1260A128A110A120A
:100C98008A1155270A128A1104300A128A11FF266E
:100CA8000A128A110B178B158B160930831603133A
:100CB8008C008D01831203138C110B100B110C1077
:100CC8008B17F730831603138600831203138615D8
:100CD800831603138801080083120313BB01B71F8F
:100CE800762E772E802EB609B709B60A0319B70AE9
:100CF800BB010314BB0D802E3608A0003708A100E5
:100D0800A2018E30B9003908A3003B08BA003A089E
:100D1800A4000A128A11EB240A128A1183120313FF
:100D28002008B6002108B7002208B8009B2E08004A
:100D38000130831203136D066E04031DA42EA52E25
:100D4800B22E200883160313AE070318AF0A8312C6
:100D58000313210883160313AF07C02E831220083C
:100D680083160313AE028312031321088316031399
:100D7800031CAF03AF02C02E08008312031321081F
:100D8800A301A3072008A201A2072308803AFF00B5
:100D980081307F02031DD22E00302202031CD52E83
:100DA800D62EDC2EFF3083120313A2000030A300DE
:100DB8008312031322089B000800831603130815E7
:100DC8008C10FF3092000C30831203139D009B019E
:100DD8009D121D128C1004309200F22E83128C1C6E
:100DE800F62EF72EF22E8C10831603130811FE2E02
:100DF800F22EF22E080083120313A00083160313A9
:100E080007178717831203139416831603131413F3
:100E180094138312031314161410941414159411B4
:100E28002008831603139300FA01FC0108008312BB
:100E3800031321082004031D222F232F252F861595
:100E4800312F013020062104031D2B2F2C2F2E2F8C
:100E58008611312F8615312F312F0800332F831635
:100E680003132C08F000700883120313EC00831698
:100E780003132D08F000700883120313EB00462FAC
:100E8800462F332F080083120313A0002008840084
:100E98000E0883138000840A0F0880008E018F01DA
:100EA800080097308316031381000230970007303B
:100EB8008312031390000800F000700883120313D4
:100EC800930014121416682F0800013400340134FA
:060ED80000340834003470
:02400E00F2F4CA
:00000001FF
