:060000000A128A11122809
:10000800FE00030EF6000408F7000A08F800831241
:1000180003137F08F9000A128A115A2D0A128A114D
:10002800C62D83120313E701E801DF01E001DD01BA
:10003800DE010A128A1135260A128A118312031365
:10004800E901EA018B120A128A1104260A128A119E
:100058008B16831203138E018F01322883120E0828
:100068008800831603132A1C3A283B286E2883121B
:1000780003136C08D900DA015908E9005A08EA00A4
:100088006B08D900DA015908A0005A08A1000A1221
:100098008A110D270A128A11831203136C08D900DA
:1000A800DA015908A0005A08A1000A128A11B326D9
:1000B8000A128A1183160313AE01AF0183120313C8
:1000C800E501E601DB01DC01DF01E0018316031332
:1000D8002A106E28AA1D71287228972867300A12DC
:1000E8008A1139270A128A11831203136808A10199
:1000F800A1076708A001A0070A128A118E260A1212
:100108008A11031083120313861A0314003003188C
:100118000130D900DA015908ED005A08EE008316BB
:100128000313AA119728AA1C9A289B2832286730FB
:100138000A128A1139270A128A11831203136808CE
:10014800A101A1076708A001A0070A128A118E263B
:100158000A128A11831203136709D9006809DA00A1
:10016800D90A0319DA0A69085907E3006A08031863
:100178006A0A5A07E40063086507E500640803187B
:10018800640A6607E6006608803AFF0080307F024E
:10019800031DD028C9306502031CD328D428DB28C6
:1001A800C83083120313E5000030E600F2288312FA
:1001B80003136608803AFF007F307F02031DE6289C
:1001C800383065020318E928EA28F2283830831203
:1001D8000313E500FF30E600F228F2288312031328
:1001E8006408B701B7076308B601B6070A128A118F
:1001F80062260A128A11831203133608BF003708D1
:10020800C0003808C1000030BC004030BD0040309C
:10021800BE000A128A11C2220A128A11831203131B
:100228003C08CF003D08D0003E08D1006608B70161
:10023800B7076508B601B6070A128A1162260A12BC
:100248008A11831203133608BF003708C000380824
:10025800C100CD30BC00CC30BD003E30BE000A121B
:100268008A11C2220A128A11831203133C08CC0095
:100278003D08CD003E08CE000A128A117C210A12E0
:100288008A11831203134C08A8004D08A9004E08D0
:10029800AA000A128A11B0230A128A1183120313C0
:1002A8002908E201E2072808E101E1076408E00102
:1002B800E0076308DF01DF076408630403196529A1
:1002C80066296D296208DE01DE076108DD01DD07A8
:1002D8006D29831603132E088312031388008316CF
:1002E8000313AA103228322832280A128A11122837
:1002F800831203134C08D2004D08D3004E08D400D3
:100308000310530D540DD5005508D8004F08D200DE
:100318005008D3005108D4000310530D540DD500D4
:100328005508D7005808031D9A29AB2957085802C1
:1003380003189F29A029B3295803FF3A5707D20069
:1003480019305202031CA929AA29B329AB294F083D
:10035800CC005008CD005108CE00C12AC12A570848
:10036800031DB729C729580857020318BC29BD29F6
:10037800C8295703FF3A5807D20019305202031C04
:10038800C629C729C829C12A0630D2005208D60072
:10039800CE1FCF29D029D129D617D11FD429D529A5
:1003A800D6295617CD17FF30CC05FF30CD050030C4
:1003B800CE05D017FF30CF05FF30D0050030D1056E
:1003C800570858020318E929EA291B2AEB290130A2
:1003D8000310CF0DD00DD10DFF3E031DEC290130C8
:1003E800D702570858060319FA29FB29132A01309E
:1003F800D60256080739031D022A032AEB29132AB5
:10040800132A132A01300310CE0CCD0CCC0CFF3E5E
:10041800031D072A0130D2005208D807132A5808AA
:100428005706031D182A192A062A522A522A58083A
:1004380057020318202A212A522A222A013003109F
:10044800CC0DCD0DCE0DFF3E031D232A0130D80261
:10045800570858060319312A322A4A2A0130D60287
:1004680056080739031D392A3A2A222A4A2A4A2ACB
:100478004A2A01300310D10CD00CCF0CFF3E031DCB
:100488003E2A0130D2005208D7074A2A5808570690
:10049800031D4F2A502A3D2A522A522AD61F552A6E
:1004A800562A672AFF30CC06FF30CD06FF30CE062D
:1004B8000130CC07003003180130CD070030031895
:1004C8000130CE07672A561F6A2A6B2A7C2AFF301A
:1004D800CF06FF30D006FF30D1060130CF070030FD
:1004E80003180130D007003003180130D1077C2AE7
:1004F800D6014C08CF074D08031103184D0A0319FC
:10050800862AD0074E08031103184E0A03198D2AAC
:10051800D107D11F902A912AA52AFF30CF06FF3094
:10052800D006FF30D1060130CF0700300318013064
:10053800D007003003180130D107D6010314D60DB7
:10054800A52A4F08A0005008A1005108A200580889
:10055800D2005208A3005608D3005308A4000A1278
:100568008A11DD240A128A11831203132008CC0091
:100578002108CD002208CE00C12A080083120313E7
:100588003C08C2003D08C3003E08C4000310430DE8
:10059800440DC5004508C600C608031DD42AD52A3F
:1005A800DD2A0030BC000030BD000030BE00AF2B9B
:1005B800AF2B3F08C2004008C3004108C400031025
:1005C800430D440DC5004508CB00CB08031DED2A9B
:1005D800EE2AF62A0030BC000030BD000030BE0014
:1005E800AF2BAF2B4B087B3EC2004208C6073C0826
:1005F800C2003D08C3003E08C40010300310C40CFC
:10060800C30CC20CFF3E031D022B4208C50045085F
:10061800CB003F08C2004008C3004108C4001030A6
:100628000310C40CC30CC20CFF3E031D142B42085C
:10063800C5004508CB068030C2004208CB05BD176F
:10064800C017FF30BF05FF30C0050030C1050030BE
:10065800C7000030C8000030C9000730C200420897
:10066800CA00362B3C1C392B3A2B4B2B3F08C707AB
:10067800400803110318400A0319432BC80741080F
:1006880003110318410A03194A2BC9074B2B0130E0
:100698000310BE0CBD0CBC0CFF3E031D4C2B0130DF
:1006A8000310BF0DC00DC10DFF3E031D542B0130BB
:1006B800CA02031D602B612B362B622B0930C20046
:1006C8004208CA00672B3C1C6A2B6B2B7C2B3F080B
:1006D800C707400803110318400A0319742BC807F9
:1006E800410803110318410A03197B2BC9077C2B06
:1006F80001300310BE0CBD0CBC0CFF3E031D7D2B4E
:1007080001300310C90CC80CC70CFF3E031D852B14
:100718000130CA02031D912B922B672B932B47089C
:10072800A0004808A1004908A2004608C2004208E3
:10073800A3004B08C3004308A4000A128A11DD2451
:100748000A128A11831203132008BC002108BD0075
:100758002208BE00AF2B0800831203132808AC0040
:100768002908AD002A08AE0003102D0D2E0DAF008C
:100778002F08B500B508031DC22BC32BCD2B0030A5
:10078800AB000030AA000030A9000030A800552CAA
:10079800552C2808AC002908AD002A08AE001730EF
:1007A8000310AE0CAD0CAC0CFF3E031DD42B2C0873
:1007B800AF002F08B000A917FF30A805FF30A90522
:1007C8000030AA052808B1002908B2002A08B30099
:1007D800B4018E30B502B51FF22BF32B182C350857
:1007E800803A8F3E0318F92BFA2B052C0030AB000A
:1007F8000030AA000030A9000030A800552C552C64
:10080800052C01300310B40CB30CB20CB10CFF3E34
:10081800031D062C0130AC002C08B507031D152C50
:10082800162C052C3C2C3C2C18303502031C1D2C96
:100838001E2C352C0030AB000030AA000030A90077
:100848000030A800552C552C352C0130AC00031075
:10085800B10DB20DB30DB40DAC0B2B2C0130B5029C
:10086800352CB508031D392C3A2C292C3C2C3C2C52
:100878003008031D402C4C2CB109B209B309B40946
:10088800B10A0319B20A0319B30A0319B40A4C2CA2
:100898003408AB003308AA003208A9003108A800C0
:1008A800552C0800F201F3010130F2070318F30A8E
:1008B8000030F3078316031314082439203A031D64
:1008C800662C672C762C831203131308F1007A0820
:1008D800AB3E84007108831380000130F100710879
:1008E800FA07CB2C8316031314082439031D7D2C17
:1008F8007E2C822C831203139301CB2C83160313B3
:1009080014082439043A031D8A2C8B2C962C831244
:1009180003136C08F10071070A128A1150270A1292
:100928008A11CB2C8316031314080C390C3A031DB7
:100938009E2C9F2CCB2C831203131308F1007108F3
:10094800FB007B08013A031DAA2CAB2CB22C1430F7
:100958000A128A1150270A128A11CB2C7B08023AF4
:10096800031DB72CB82CBF2C14300A128A1150273B
:100978000A128A11CB2C14300A128A1150270A1233
:100988008A11CB2CCB2CCB2CCB2CCB2CCB2C831265
:1009980003138C117A08033A031DD32CD42CDC2CB6
:1009A800FA010A128A1124270A128A11DC2CDC2C7B
:1009B8000800831203132308031DE32CEB2C2208E1
:1009C80021042004031DE92CEA2C012DEB2C003016
:1009D800A0000030A1000030A200592D592D012D92
:1009E8000130A5002508A30701300310A20CA10CB3
:1009F800A00CFF3E031DF92C012DFE302205031D1E
:100A0800062D072DF42C1F2D1F2D0130A5002508BC
:100A1800A3070130A007003003180130A1070030F8
:100A280003180130A20701300310A20CA10CA00C7E
:100A3800FF3E031D182DFF302205031D242D252DF3
:100A4800092D322D322D0130A30201300310A00DE3
:100A5800A10DA20DFF3E031D2A2D322DA11F352DFC
:100A6800362D272D2318392D3A2D402DFF30A0057E
:100A78007F30A105FF30A2050310A30C2308A500B1
:100A8800A601A70110300310A50DA60DA70DFF3E66
:100A9800031D472D2508A0042608A1042708A20441
:100AA8002408031D582D592DA21708008C1D5D2DF3
:100AB8005E2D672D831603132A140A128A115624F1
:100AC8000A128A11B92D0B1D6A2D6B2D842D8316E0
:100AD800031333083106031D732D32083006031D36
:100AE800762D772D7B2DAA14B001B101822D01300E
:100AF800B0070318B10A0030B107822D0B11B92DC8
:100B08000C1C872D882D8A2D0C10B92D0B1C8D2DB2
:100B18008E2DAE2D0310861A0314003003180130F1
:100B2800F400F5016E087506031D9C2D6D0874060A
:100B380003199F2DA02DA42D83160313AA15AC2DE0
:100B48008316031388019030831203138800AC2D99
:100B58000B10B92D831603138801F0308312031389
:100B68008800B92DB92DB92DB92D79088312031331
:100B7800FF0078088A0077088400760E8300FE0E4E
:100B88007E0E0900FA01FB01FC01E901EA01EB0113
:100B9800EC0183160313AB01AC01AD01AE01AF014B
:100BA800B001B101831603170A128A115B270A12D2
:100BB8008A1190000A128A115C270A128A11910080
:100BC800831603130A128A115D270A128A11B200CA
:100BD8000A128A115E270A128A11B30083120313BC
:100BE8000A128A1159270A128A11ED000A128A116B
:100BF8005A270A128A11EE0083010A128A1115284F
:100C080083120313A001A1012108803AFF0080305C
:100C18007F02031D112E4D302002031C142E152EA9
:100C2800192E342E342E192E00000B1D1C2E1D2EAD
:100C3800182E0B11013083120313A0070318A10A01
:100C48000030A1072108803AFF0080307F02031D91
:100C58002F2E4D302002031C322E332E192E342E07
:100C6800080083160313AA010A128A11D3260A124E
:100C78008A110A128A1147270A128A1106300A12A3
:100C88008A11F1260A128A110B178B158B16093057
:100C9800831603138C008D01831203138C110B1020
:100CA8000B110C108B17F730831603138600831271
:100CB8000313861583160313880108008312031390
:100CC800BB01B71F682E692E722EB609B709B60A7E
:100CD8000319B70ABB010314BB0D722E3608A00016
:100CE8003708A100A2018E30B9003908A3003B08DB
:100CF800BA003A08A4000A128A11DD240A128A11DD
:100D0800831203132008B6002108B7002208B80090
:100D18008D2E08000130831203136D066E04031D27
:100D2800962E972EA42E200883160313AE070318B9
:100D3800AF0A83120313210883160313AF07B22ED9
:100D48008312200883160313AE02831203132108AB
:100D580083160313031CAF03AF02B22E08008312DD
:100D680003132108A301A3072008A201A20723084F
:100D7800803AFF0081307F02031DC42E003022021A
:100D8800031CC72EC82ECE2EFF3083120313A200D9
:100D98000030A3008312031322089B000800831667
:100DA800031387148C10FF3092000C308312031346
:100DB8009D009B019D121D128C1004309200E42EA0
:100DC80083128C1CE82EE92EE42E8C108316031354
:100DD8008710F02EE42EE42E080083120313A000DF
:100DE80083160313871507168312031394168316A5
:100DF8000313141394138312031314161410941466
:100E0800141594112008831603139300FA01FC01AA
:100E180008008312031321082004031D142F152F23
:100E2800172F8615232F013020062104031D1D2F9F
:100E38001E2F202F8611232F8615232F232F0800DE
:100E4800252F831603132C08F00070088312031350
:100E5800EC00831603132D08F000700883120313A7
:100E6800EB00382F382F252F080083120313A0001A
:100E7800200884000E0883138000840A0F0880006D
:100E88008E018F0108009730831603138100073005
:100E98008312031390000800F000700883120313F4
:100EA800930014121416582F08000134003401342A
:060EB80000340834003490
:04400E00E2E0FFFFEE
:00000001FF
