:060000000A128A11122809
:10000800FE00030EF6000408F7000A08F800831241
:1000180003137F08F9000A128A11632D0A128A1144
:10002800582E83120313E701E801DF01E001DD0127
:10003800DE010A128A112C260A128A11831203136E
:10004800EB01EC010030A0000030A1000A128A1177
:10005800A4260A128A118B120A128A11CF250A12B3
:100068008A118B16831203138E018F013B2883128A
:100078000E088800831603132A1C4328442877286F
:10008800831203136E08D900DA015908EB005A08E5
:10009800EC006D08D900DA015908A0005A08A1003F
:1000A8000A128A11E0260A128A11831203136E08B3
:1000B800D900DA015908A0005A08A1000A128A11C9
:1000C800A4260A128A1183160313AE01AF01831204
:1000D8000313E501E601DB01DC01DF01E001831622
:1000E80003132A107728AA1D7A287B28A0286730AE
:1000F8000A128A110C270A128A118312031368083C
:10010800A101A1076708A001A0070A128A11802689
:100118000A128A11031083120313861A031400307B
:1001280003180130D900DA015908E9005A08EA0031
:1001380083160313AA11A028AA1CA328A4283B28C5
:1001480067300A128A110C270A128A1183120313C4
:100158006808A101A1076708A001A0070A128A116F
:1001680080260A128A11831203136709D9006809C5
:10017800DA00D90A0319DA0A6B085907E3006C0890
:1001880003186C0A5A07E40063086507E500640869
:100198000318640A6607E6006608803AFF008030A4
:1001A8007F02031DD928C9306502031CDC28DD281D
:1001B800E428C83083120313E5000030E600FB286A
:1001C800831203136608803AFF007F307F02031D05
:1001D800EF28383065020318F228F328FB28383056
:1001E80083120313E500FF30E600FB28FB28831287
:1001F80003136408B701B7076308B601B6070A1204
:100208008A1100260A128A11831203133608BF00C6
:100218003708C0003808C1000030BC004030BD00BD
:100228004030BE000A128A11CB220A128A118312A8
:1002380003133C08CF003D08D0003E08D1006608F3
:10024800B701B7076508B601B6070A128A11002672
:100258000A128A11831203133608BF003708C00038
:100268003808C100CD30BC00CC30BD003E30BE00E7
:100278000A128A11CB220A128A11831203133C082C
:10028800CC003D08CD003E08CE000A128A11852117
:100298000A128A11831203134C08A8004D08A900FA
:1002A8004E08AA000A128A11B9230A128A11831267
:1002B80003132908E201E2072808E101E1076408BD
:1002C800E001E0076308DF01DF076408630403193E
:1002D8006E296F2976296208DE01DE076108DD01D3
:1002E800DD077629831603132E088312031388006B
:1002F80083160313AA103B283B283B280A128A11AD
:100308001228831203134C08D2004D08D3004E085C
:10031800D4000310530D540DD5005508D8004F08CC
:10032800D2005008D3005108D4000310530D540DC7
:10033800D5005508D7005808031DA329B429570824
:1003480058020318A829A929BC295803FF3A5707B6
:10035800D20019305202031CB229B329BC29B4298E
:100368004F08CC005008CD005108CE00CA2ACA2A2E
:100378005708031DC029D029580857020318C52952
:10038800C629D1295703FF3A5807D200193052021B
:10039800031CCF29D029D129CA2A0630D2005208F5
:1003A800D600CE1FD829D929DA29D617D11FDD2999
:1003B800DE29DF295617CD17FF30CC05FF30CD05D4
:1003C8000030CE05D017FF30CF05FF30D005003004
:1003D800D105570858020318F229F329242AF429C9
:1003E80001300310CF0DD00DD10DFF3E031DF529AF
:1003F8000130D702570858060319032A042A1C2A71
:100408000130D60256080739031D0B2A0C2AF42995
:100418001C2A1C2A1C2A01300310CE0CCD0CCC0C33
:10042800FF3E031D102A0130D2005208D8071C2AAB
:1004380058085706031D212A222A0F2A5B2A5B2AFD
:10044800580857020318292A2A2A5B2A2B2A01301E
:100458000310CC0DCD0DCE0DFF3E031D2C2A01300F
:10046800D8025708580603193A2A3B2A532A01305A
:10047800D60256080739031D422A432A2B2A532A33
:10048800532A532A01300310D10CD00CCF0CFF3E55
:10049800031D472A0130D2005208D707532A5808AB
:1004A8005706031D582A592A462A5B2A5B2AD61F53
:1004B8005E2A5F2A702AFF30CC06FF30CD06FF3057
:1004C800CE060130CC07003003180130CD070030CC
:1004D80003180130CE07702A561F732A742A852AFA
:1004E800FF30CF06FF30D006FF30D1060130CF07EE
:1004F800003003180130D007003003180130D1074D
:10050800852AD6014C08CF074D08031103184D0A58
:1005180003198F2AD0074E08031103184E0A03192E
:10052800962AD107D11F992A9A2AAE2AFF30CF06D8
:10053800FF30D006FF30D1060130CF070030031856
:100548000130D007003003180130D107D601031459
:10055800D60DAE2A4F08A0005008A1005108A200ED
:100568005808D2005208A3005608D3005308A40024
:100578000A128A11E6240A128A1183120313200828
:10058800CC002108CD002208CE00CA2A0800831218
:1005980003133C08C2003D08C3003E08C400031012
:1005A800430D440DC5004508C600C608031DDD2AD5
:1005B800DE2AE62A0030BC000030BD000030BE0054
:1005C800B82BB82B3F08C2004008C3004108C4003C
:1005D8000310430D440DC5004508CB00CB08031D8F
:1005E800F62AF72AFF2A0030BC000030BD00003090
:1005F800BE00B82BB82B4B087B3EC2004208C6078A
:100608003C08C2003D08C3003E08C4001030031077
:10061800C40CC30CC20CFF3E031D0B2B4208C500C3
:100628004508CB003F08C2004008C3004108C40089
:1006380010300310C40CC30CC20CFF3E031D1D2B4D
:100648004208C5004508CB068030C2004208CB05E9
:10065800BD17C017FF30BF05FF30C0050030C1050A
:100668000030C7000030C8000030C9000730C200A1
:100678004208CA003F2B3C1C422B432B542B3F08FB
:10068800C707400803110318400A03194C2BC80771
:10069800410803110318410A0319532BC907542BA6
:1006A80001300310BE0CBD0CBC0CFF3E031D552BC6
:1006B80001300310BF0DC00DC10DFF3E031D5D2BA2
:1006C8000130CA02031D692B6A2B3F2B6B2B0930A3
:1006D800C2004208CA00702B3C1C732B742B852B5C
:1006E8003F08C707400803110318400A03197D2B68
:1006F800C807410803110318410A0319842BC907C5
:10070800852B01300310BE0CBD0CBC0CFF3E031D35
:10071800862B01300310C90CC80CC70CFF3E031D03
:100728008E2B0130CA02031D9A2B9B2B702B9C2BFE
:100738004708A0004808A1004908A2004608C200CE
:100748004208A3004B08C3004308A4000A128A11F8
:10075800E6240A128A11831203132008BC00210818
:10076800BD002208BE00B82B080083120313280816
:10077800AC002908AD002A08AE0003102D0D2E0D7F
:10078800AF002F08B500B508031DCB2BCC2BD62BFB
:100798000030AB000030AA000030A9000030A800EB
:1007A8005E2C5E2C2808AC002908AD002A08AE0093
:1007B80017300310AE0CAD0CAC0CFF3E031DDD2B47
:1007C8002C08AF002F08B000A917FF30A805FF308C
:1007D800A9050030AA052808B1002908B2002A088E
:1007E800B300B4018E30B502B51FFB2BFC2B212CB6
:1007F8003508803A8F3E0318022C032C0E2C00304B
:10080800AB000030AA000030A9000030A8005E2C20
:100818005E2C0E2C01300310B40CB30CB20CB10CCE
:10082800FF3E031D0F2C0130AC002C08B507031D3B
:100838001E2C1F2C0E2C452C452C18303502031C61
:10084800262C272C3E2C0030AB000030AA000030AC
:10085800A9000030A8005E2C5E2C3E2C0130AC00B4
:100868000310B10DB20DB30DB40DAC0B342C013027
:10087800B5023E2CB508031D422C432C322C452CC6
:10088800452C3008031D492C552CB109B209B30970
:10089800B409B10A0319B20A0319B30A0319B40A4D
:1008A800552C3408AB003308AA003208A9003108D7
:1008B800A8005E2C0800F201F3010130F2070318CA
:1008C800F30A0030F3078316031314082439203A77
:1008D800031D6F2C702C7F2C831203131308F10057
:1008E8007A08AB3E84007108831380000130F10060
:1008F8007108FA07D42C8316031314082439031D2E
:10090800862C872C8B2C831203139301D42C8316EB
:10091800031314082439043A031D932C942C9F2C98
:10092800831203136E08F10071070A128A11232734
:100938000A128A11D42C8316031314080C390C3AA2
:10094800031DA72CA82CD42C831203131308F10021
:100958007108FB007B08013A031DB32CB42CBB2C97
:1009680014300A128A1123270A128A11D42C7B0800
:10097800023A031DC02CC12CC82C14300A128A114B
:1009880023270A128A11D42C14300A128A11232719
:100998000A128A11D42CD42CD42CD42CD42CD42C98
:1009A800831203138C117A08033A031DDC2CDD2C07
:1009B800E52CFA010A128A11F7260A128A11E52C87
:1009C800E52C0800831203132308031DEC2CF42CD8
:1009D800220821042004031DF22CF32C0A2DF42CE8
:1009E8000030A0000030A1000030A200622D622D6E
:1009F8000A2D0130A5002508A30701300310A20C19
:100A0800A10CA00CFF3E031D022D0A2DFE3022056D
:100A1800031D0F2D102DFD2C282D282D0130A5008C
:100A28002508A3070130A007003003180130A107EB
:100A3800003003180130A20701300310A20CA10CEA
:100A4800A00CFF3E031D212DFF302205031D2D2D77
:100A58002E2D122D3B2D3B2D0130A302013003100A
:100A6800A00DA10DA20DFF3E031D332D3B2DA11F8F
:100A78003E2D3F2D302D2318422D432D492DFF307B
:100A8800A0057F30A105FF30A2050310A30C2308A1
:100A9800A500A601A70110300310A50DA60DA70DEE
:100AA800FF3E031D502D2508A0042608A104270891
:100AB800A2042408031D612D622DA21708008C1DB5
:100AC800662D672D702D831603132A140A128A11B6
:100AD8005F240A128A11C22D0B1D732D742D8D2DC2
:100AE8008316031333083106031D7C2D32083006A4
:100AF800031D7F2D802D842DAA14B001B1018B2DEB
:100B08000130B0070318B10A0030B1078B2D0B1163
:100B1800C22D0C1C902D912D932D0C10C22D0B1C49
:100B2800962D972DB72D0310861A0314003003183D
:100B38000130F400F5016A087506031DA52D690842
:100B480074060319A82DA92DAD2D83160313AA1514
:100B5800B52D831603138801903083120313880080
:100B6800B52D0B10C22D831603138801F0308312A4
:100B780003138800C22DC22DC22DC22D79088312FD
:100B88000313FF0078088A0077088400760E830034
:100B9800FE0E7E0E090083120313A001A101210895
:100BA800803AFF0080307F02031DDC2D4D3020028B
:100BB800031CDF2DE02DE42DFF2DFF2DE42D00007B
:100BC8000B1DE72DE82DE32D0B11013083120313C4
:100BD800A0070318A10A0030A1072108803AFF00E6
:100BE80080307F02031DFA2D4D302002031CFD2D9D
:100BF800FE2DE42DFF2D080083120313BB01B71F40
:100C0800062E072E102EB609B709B60A0319B70A19
:100C1800BB010314BB0D102E3608A0003708A10035
:100C2800A2018E30B9003908A3003B08BA003A087F
:100C3800A4000A128A11E6240A128A1183120313E5
:100C48002008B6002108B7002208B8002B2E08009B
:100C580083160313AA010A128A111A270A128A1183
:100C680008300A128A11C4260A128A110B178B152A
:100C78008B160930831603138C008D01831203131E
:100C88008C110B100B110C108B17F73083160313F4
:100C980086008312031386118316031388018701C4
:100CA8008312031387100800FA01FB01FC01E90114
:100CB800EA01EB01EC01ED01EE0183160313AB0130
:100CC800AC01AD01AE01AF01B001B101831603174C
:100CD80090019101831603130A128A112C270A1214
:100CE8008A11B2000A128A112D270A128A11B3003A
:100CF80083010A128A111528831203136A086904EA
:100D0800031D872E882E952E200883160313AE0701
:100D18000318AF0A83120313210883160313AF07BE
:100D2800A32E8312200883160313AE028312031323
:100D3800210883160313031CAF03AF02A32E080078
:100D4800831203132108A301A3072008A201A20705
:100D58002308803AFF0081307F02031DB52E003042
:100D68002202031CB82EB92EBF2EFF3083120313A4
:100D7800A2000030A3008312031322089B0008007E
:100D880083120313A0008316031387150716831213
:100D98000313941683160313141394138312031363
:100DA80014161410941414159411200883160313A0
:100DB8009300FA01FC0108008312031321082004A0
:100DC800031DE72EE82EEA2E8611F62E01302006A6
:100DD8002104031DF02EF12EF32E8615F62E861112
:100DE800F62EF62E0800F82E831603132C08F000B2
:100DF800700883120313EE00831603132D08F00006
:100E0800700883120313ED000B2F0B2FF82E080028
:100E180083120313A000200884000E0883138000A7
:100E2800840A0F0880008E018F010800973083160E
:100E38000313810007308312031390000800F000A9
:100E48007008831203139300141214162B2F080032
:040E58000834003426
:04400E00E2E0FFFFEE
:00000001FF
