:060000000A128A11122809
:10000800FE00030EF6000408F7000A08F800831241
:1000180003137F08F9000A128A115D2D0A128A114A
:10002800572E83120313E701E801DF01E001DD0128
:10003800DE010A128A11C9250A128A1183120313D2
:10004800EB01EC010030A0000030A1000A128A1177
:10005800A4260A128A118B120A128A11FA250A1288
:100068008A118B16831203138E018F013B2883128A
:100078000E088800831603132A1C4328442877286F
:10008800831203136E08D900DA015908EB005A08E5
:10009800EC006D08D900DA015908A0005A08A1003F
:1000A8000A128A11FE260A128A11831203136E0895
:1000B800D900DA015908A0005A08A1000A128A11C9
:1000C800A4260A128A11831603179001910183123C
:1000D8000313E501E601DB01DC01DF01E001831622
:1000E80003132A107728AA1D7A287B28A0286730AE
:1000F8000A128A112A270A128A118312031368081E
:10010800A101A1076708A001A0070A128A117F268A
:100118000A128A11031083120313861A031400307B
:1001280003180130D900DA015908E9005A08EA0031
:1001380083160313AA11A028AA1CA328A4283B28C5
:1001480067300A128A112A270A128A1183120313A6
:100158006808A101A1076708A001A0070A128A116F
:100168007F260A128A11831203136709D9006809C6
:10017800DA00D90A0319DA0A6B085907E3006C0890
:1001880003186C0A5A07E40063086507E500640869
:100198000318640A6607E6006608803AFF008030A4
:1001A8007F02031DD928C9306502031CDC28DD281D
:1001B800E428C83083120313E5000030E600FB286A
:1001C800831203136608803AFF007F307F02031D05
:1001D800EF28383065020318F228F328FB28383056
:1001E80083120313E500FF30E600FB28FB28831287
:1001F80003136408B701B7076308B601B6070A1204
:100208008A112B260A128A11831203133608BF009B
:100218003708C0003808C1000030BC004030BD00BD
:100228004030BE000A128A11C5220A128A118312AE
:1002380003133C08CF003D08D0003E08D1006608F3
:10024800B701B7076508B601B6070A128A112B2647
:100258000A128A11831203133608BF003708C00038
:100268003808C100CD30BC00CC30BD003E30BE00E7
:100278000A128A11C5220A128A11831203133C0832
:10028800CC003D08CD003E08CE000A128A117F211D
:100298000A128A11831203134C08A8004D08A900FA
:1002A8004E08AA000A128A11B3230A128A1183126D
:1002B80003132908E201E2072808E101E1076408BD
:1002C800E001E0076308DF01DF076408630403193E
:1002D8006E296F2976296208DE01DE076108DD01D3
:1002E800DD07762983160313AA103B283B283B28F1
:1002F8000A128A111228831203134C08D2004D08DF
:10030800D3004E08D4000310530D540DD5005508E2
:10031800D8004F08D2005008D3005108D400031069
:10032800530D540DD5005508D7005808031D9D29B5
:10033800AE29570858020318A229A329B629580339
:10034800FF3A5707D20019305202031CAC29AD29D5
:10035800B629AE294F08CC005008CD005108CE0070
:10036800C42AC42A5708031DBA29CA29580857029B
:100378000318BF29C029CB295703FF3A5807D200D1
:1003880019305202031CC929CA29CB29C42A0630AC
:10039800D2005208D600CE1FD229D329D429D61785
:1003A800D11FD729D829D9295617CD17FF30CC0501
:1003B800FF30CD050030CE05D017FF30CF05FF3018
:1003C800D0050030D105570858020318EC29ED294B
:1003D8001E2AEE2901300310CF0DD00DD10DFF3E9E
:1003E800031DEF290130D702570858060319FD29C4
:1003F800FE29162A0130D60256080739031D052A98
:10040800062AEE29162A162A162A01300310CE0CBF
:10041800CD0CCC0CFF3E031D0A2A0130D200520835
:10042800D807162A58085706031D1B2A1C2A092A0A
:10043800552A552A580857020318232A242A552AC8
:10044800252A01300310CC0DCD0DCE0DFF3E031D26
:10045800262A0130D802570858060319342A352AA3
:100468004D2A0130D60256080739031D3C2A3D2A79
:10047800252A4D2A4D2A4D2A01300310D10CD00CC3
:10048800CF0CFF3E031D412A0130D2005208D70786
:100498004D2A58085706031D522A532A402A552A1E
:1004A800552AD61F582A592A6A2AFF30CC06FF3007
:1004B800CD06FF30CE060130CC07003003180130DE
:1004C800CD07003003180130CE076A2A561F6D2A5F
:1004D8006E2A7F2AFF30CF06FF30D006FF30D106C4
:1004E8000130CF07003003180130D007003003185F
:1004F8000130D1077F2AD6014C08CF074D080311D8
:1005080003184D0A0319892AD0074E080311031846
:100518004E0A0319902AD107D11F932A942AA82A90
:10052800FF30CF06FF30D006FF30D1060130CF07AD
:10053800003003180130D007003003180130D1070C
:10054800D6010314D60DA82A4F08A0005008A10010
:100558005108A2005808D2005208A3005608D30038
:100568005308A4000A128A11E0240A128A1183127D
:1005780003132008CC002108CD002208CE00C42A8D
:100588000800831203133C08C2003D08C3003E085C
:10059800C4000310430D440DC5004508C600C60835
:1005A800031DD72AD82AE02A0030BC000030BD003D
:1005B8000030BE00B22BB22B3F08C2004008C30077
:1005C8004108C4000310430D440DC5004508CB0085
:1005D800CB08031DF02AF12AF92A0030BC000030AC
:1005E800BD000030BE00B22BB22B4B087B3EC200D0
:1005F8004208C6073C08C2003D08C3003E08C400C4
:1006080010300310C40CC30CC20CFF3E031D052B95
:100618004208C5004508CB003F08C2004008C30097
:100628004108C40010300310C40CC30CC20CFF3EB8
:10063800031D172B4208C5004508CB068030C200B1
:100648004208CB05BD17C017FF30BF05FF30C005F6
:100658000030C1050030C7000030C8000030C900B4
:100668000730C2004208CA00392B3C1C3C2B3D2BEA
:100678004E2B3F08C707400803110318400A031907
:10068800462BC807410803110318410A03194D2BCB
:10069800C9074E2B01300310BE0CBD0CBC0CFF3E2D
:1006A800031D4F2B01300310BF0DC00DC10DFF3EC0
:1006B800031D572B0130CA02031D632B642B392BF2
:1006C800652B0930C2004208CA006A2B3C1C6D2BFE
:1006D8006E2B7F2B3F08C707400803110318400AF9
:1006E8000319772BC807410803110318410A031996
:1006F8007E2BC9077F2B01300310BE0CBD0CBC0C30
:10070800FF3E031D802B01300310C90CC80CC70C19
:10071800FF3E031D882B0130CA02031D942B952B25
:100728006A2B962B4708A0004808A1004908A20098
:100738004608C2004208A3004B08C3004308A400AF
:100748000A128A11E0240A128A118312031320085C
:10075800BC002108BD002208BE00B22B080083128D
:1007680003132808AC002908AD002A08AE000310BE
:100778002D0D2E0DAF002F08B500B508031DC52B94
:10078800C62BD02B0030AB000030AA000030A900E7
:100798000030A800582C582C2808AC002908AD00B7
:1007A8002A08AE0017300310AE0CAD0CAC0CFF3E9F
:1007B800031DD72B2C08AF002F08B000A917FF3056
:1007C800A805FF30A9050030AA052808B1002908A6
:1007D800B2002A08B300B4018E30B502B51FF52B5C
:1007E800F62B1B2C3508803A8F3E0318FC2BFD2B6B
:1007F800082C0030AB000030AA000030A9000030FF
:10080800A800582C582C082C01300310B40CB30C39
:10081800B20CB10CFF3E031D092C0130AC002C08B2
:10082800B507031D182C192C082C3F2C3F2C183009
:100838003502031C202C212C382C0030AB00003052
:10084800AA000030A9000030A800582C582C382CD9
:100858000130AC000310B10DB20DB30DB40DAC0BEB
:100868002E2C0130B502382CB508031D3C2C3D2C2C
:100878002C2C3F2C3F2C3008031D432C4F2CB10946
:10088800B209B309B409B10A0319B20A0319B30AC0
:100898000319B40A4F2C3408AB003308AA003208F5
:1008A800A9003108A800582C0800F201F301013012
:1008B800F2070318F30A0030F3078316031314082A
:1008C8002439203A031D692C6A2C792C83120313CE
:1008D8001308F1007A08AB3E840071088313800086
:1008E8000130F1007108FA07CE2C8316031314089F
:1008F8002439031D802C812C852C8312031393012A
:10090800CE2C8316031314082439043A031D8D2CA6
:100918008E2C992C831203136E08F10071070A12AA
:100928008A1141270A128A11CE2C83160313140840
:100938000C390C3A031DA12CA22CCE2C83120313C4
:100948001308F1007108FB007B08013A031DAD2C68
:10095800AE2CB52C14300A128A1141270A128A11BA
:10096800CE2C7B08023A031DBA2CBB2CC22C1430A7
:100978000A128A1141270A128A11CE2C14300A123F
:100988008A1141270A128A11CE2CCE2CCE2CCE2CBD
:10099800CE2CCE2C831203138C117A08033A031D34
:1009A800D62CD72CDF2CFA010A128A1115270A1225
:1009B8008A11DF2CDF2C0800831203132308031D80
:1009C800E62CEE2C220821042004031DEC2CED2C2F
:1009D800042DEE2C0030A0000030A1000030A20051
:1009E8005C2D5C2D042D0130A5002508A3070130DE
:1009F8000310A20CA10CA00CFF3E031DFC2C042D1F
:100A0800FE302205031D092D0A2DF72C222D222D3B
:100A18000130A5002508A3070130A00700300318FE
:100A28000130A107003003180130A207013003107C
:100A3800A20CA10CA00CFF3E031D1B2DFF302205AC
:100A4800031D272D282D0C2D352D352D0130A30202
:100A580001300310A00DA10DA20DFF3E031D2D2D89
:100A6800352DA11F382D392D2A2D23183C2D3D2D2C
:100A7800432DFF30A0057F30A105FF30A2050310EC
:100A8800A30C2308A500A601A70110300310A50D8B
:100A9800A60DA70DFF3E031D4A2D2508A004260814
:100AA800A1042708A2042408031D5B2D5C2DA217AE
:100AB80008008C1D602D612D6A2D831603132A14DE
:100AC8000A128A1159240A128A11BC2D0B1D6D2D88
:100AD8006E2D872D8316031333083106031D762DDB
:100AE80032083006031D792D7A2D7E2DAA14B00107
:100AF800B101852D0130B0070318B10A0030B107E4
:100B0800852D0B11BC2D0C1C8A2D8B2D8D2D0C10B9
:100B1800BC2D0B1C902D912DB12D0310861A03149A
:100B2800003003180130F400F5016A087506031D4A
:100B38009F2D690874060319A22DA32DA72D8316CE
:100B48000313AA15AF2D831603138801903083125F
:100B580003138800AF2D0B10BC2D831603138801D7
:100B6800F030831203138800BC2DBC2DBC2DBC2D86
:100B7800790883120313FF0078088A007708840035
:100B8800760E8300FE0E7E0E090083160313AA015B
:100B98000A128A11C4260A128A110A128A113827DF
:100BA8000A128A1104300A128A11E2260A128A11DC
:100BB8000B178B158B160930831603138C008D01C8
:100BC800831203138C110B100B110C108B17F730B9
:100BD80083160313860083120313861183160313E7
:100BE80088018701831203138710080083120313F7
:100BF800A001A1012108803AFF0080307F02031D77
:100C0800072E4D302002031C0A2E0B2E0F2E2A2EE3
:100C18002A2E0F2E00000B1D122E132E0E2E0B1136
:100C2800013083120313A0070318A10A0030A1079B
:100C38002108803AFF0080307F02031D252E4D30A9
:100C48002002031C282E292E0F2E2A2E080083127C
:100C58000313BB01B71F312E322E3B2EB609B7093D
:100C6800B60A0319B70ABB010314BB0D3B2E36089D
:100C7800A0003708A100A2018E30B9003908A300EE
:100C88003B08BA003A08A4000A128A11E0240A12A2
:100C98008A11831203132008B6002108B70022081E
:100CA800B800562E0800FA01FB01FC01E901EA012F
:100CB800EB01EC01ED01EE0183160313AB01AC016E
:100CC800AD01AE01AF01B001B10183160317900168
:100CD8009101831603130A128A114A270A128A11EC
:100CE800B2000A128A114B270A128A11B300830133
:100CF8000A128A111528831203136A086904031D4E
:100D0800862E872E942E2008831603179007031823
:100D1800910A831203132108831603179107A32E40
:100D280083120313200883160317900283120313F8
:100D3800210883160317031C91039102A32E0800B0
:100D4800831203132108A301A3072008A201A20705
:100D58002308803AFF0081307F02031DB52E003042
:100D68002202031CB82EB92EBF2EFF3083120313A4
:100D7800A2000030A3008312031322089B0008007E
:100D88008316031387148C10FF3092000C308312E3
:100D980003139D009B019D121D128C1004309200BC
:100DA800D52E83128C1CD92EDA2ED52E8C108316B4
:100DB80003138710E12ED52ED52E080083120313B6
:100DC800A0008316031387150716831203139416BE
:100DD8008316031314139413831203131416141095
:100DE8009414141594112008831603139300FA0120
:100DF800FC0108008312031321082004031D052F9A
:100E0800062F082F8611142F013020062104031DF8
:100E18000E2F0F2F112F8615142F8611142F142F14
:100E28000800162F831603132C08F000700883128D
:100E38000313EE00831603132D08F00070088312C5
:100E48000313ED00292F292F162F080083120313EF
:100E5800A000200884000E0883138000840A0F086D
:100E680080008E018F0108009730831603138100DC
:100E780007308312031390000800F00070088312F3
:100E88000313930014121416492F08000834003471
:04400E00E2E0FFFFEE
:00000001FF
