:060000000A128A11AE2F66
:100F5C0083010A128A11B22F973083160313810072
:100F6C008801FF308312031388008101F201F30121
:100F7C00BF2F72088312031388000130F207031885
:100F8C00F30A0030F3070A128A11D3270A128A11C6
:100F9C00BF2FBF2F0A128A110028F001F10171082E
:100FAC00803AFF0080307F02031DDE2F4D3070022F
:100FBC00031CE12FE22FE62FFF2FFF2FE62F00005F
:100FCC000B1DE92FEA2FE52F0B110130F007031849
:100FDC00F10A0030F1077108803AFF0080307F027F
:100FEC00031DFA2F4D307002031CFD2FFE2FE62F30
:040FFC00FF2F0800BB
:04400E00E2E0FFFFEE
:00000001FF
