:060000000A128A11122809
:10000800FE00030EF3000408F4000A08F50083124A
:1000180003137F08F6000A128A118B280A128A1124
:100028009E2983120313C201BD1F1B281C282528E3
:10003800BC09BD09BC0A0319BD0AC2010314C20DDB
:100048002528BF1F282829283328BE09BF09BE0A2A
:100058000319BF0A0130C0004008C2063328C30193
:10006800C4013D083C0403193A283B287928C101FA
:100078000314C10D4B2801300310BC0DBD0DFF3E0C
:10008800031D40280130C0004008C1074B28BD1F90
:100098004E284F283F285128512801300310C30DFE
:1000A800C40DFF3E031D52283D083F02031D5E2874
:1000B8003C083E02031C612862286A283C08BE02EC
:1000C8003D08031CBF03BF0243146A280130031014
:1000D800BD0CBC0CFF3E031D6B280130C102031D83
:1000E800762877285128792879284208031D7D2801
:1000F8008328C309C409C30A0319C40A8328440806
:10010800BD01BD074308BC01BC078A2808000230AE
:1001180077067804031D912892289528F701F8019D
:10012800952883160313941E9A289B28B8288312AF
:1001380003131308F000F1017708F2007207203E5C
:100148008400700883138000840A710880000130DD
:10015800F7070318F80A0030F8072308B501B507B0
:100168002208B401B407BB2883129301BB288C1161
:100178007608FF0075088A0074088400730E8300EF
:10018800FE0E7E0E09000A3083120313BC000030F5
:10019800BD004608B701B7074508B601B607FF30E6
:1001A800B8000030B9000A128A11FD200A128A111B
:1001B800831203133708BF01BF073608BE01BE0705
:1001C8000A128A1115200A128A11831203133D0894
:1001D800C801C8073C08C701C7074808B701B707DF
:1001E8004708B601B6070A128A1129210A128A118C
:1001F800080083120313BA01BB010229361C052922
:1002080006290C293808BA070318BB0A3908BB079E
:1002180001300310B80DB90DFF3E031D0D29013043
:100228000310B70CB60CFF3E031D1429370836041B
:10023800031D1F292029022921293B08B701B707D7
:100248003A08B601B60728290800831203133708AD
:10025800B901B9073608B801B8073908803AFF006C
:1002680081307F02031D3A2900303802031C3D29E2
:100278003E294429FF3083120313B8000030B90027
:100288008312031338089500080083160313071711
:1002980087178312031394168316031314139413E6
:1002A800831203131416141094141415941183163E
:1002B80003138C15A43093000B178B170B1683129E
:1002C8000313A201A30108008316031387168C10D9
:1002D800FF3092000C308312031397009501971298
:1002E80017128C1004309200792983128C1C7D29F6
:1002F8007E2979298C108316031387128529792979
:10030800792908000A128A11AD210A128A118C294A
:10031800831203133508C601C6073408C501C5078B
:100328000A128A11C7200A128A118C298C290A12EA
:100338008A111228F701F80183132030840036301F
:100348000A128A11B8210A128A1183010A128A1123
:1003580086290A128A1168210A128A110A128A1138
:1003680049210A128A11080064008001840A0406DF
:08037800031900340406B92941
:02400E00F4F4C8
:00000001FF
