:060000000A128A11122809
:10000800FE00030EF3000408F4000A08F50083124A
:1000180003137F08F6000A128A11C1280A128A11EE
:10002800D72983120313C201BD1F1B281C282528AA
:10003800BC09BD09BC0A0319BD0AC2010314C20DDB
:100048002528BF1F282829283328BE09BF09BE0A2A
:100058000319BF0A0130C0004008C2063328C30193
:10006800C4013D083C0403193A283B287928C101FA
:100078000314C10D4B2801300310BC0DBD0DFF3E0C
:10008800031D40280130C0004008C1074B28BD1F90
:100098004E284F283F285128512801300310C30DFE
:1000A800C40DFF3E031D52283D083F02031D5E2874
:1000B8003C083E02031C612862286A283C08BE02EC
:1000C8003D08031CBF03BF0243146A280130031014
:1000D800BD0CBC0CFF3E031D6B280130C102031D83
:1000E800762877285128792879284208031D7D2801
:1000F8008328C309C409C30A0319C40A8328440806
:10010800BD01BD074308BC01BC078A2808000A30A6
:1001180083120313BC000030BD004608B701B707BF
:100128004508B601B607FF30B8000030B9000A121A
:100138008A11F7200A128A11831203133708BF01A4
:10014800BF073608BE01BE070A128A1115200A1217
:100158008A11831203133D08C801C8073C08C70168
:10016800C7074808B701B7074708B601B6070A1214
:100178008A1147210A128A1108000230770678048A
:10018800031DC728C828CB28F701F801CB288316F8
:100198000313941ED028D128E828831203131308C8
:1001A800F000F1017708F2007207203E8400700821
:1001B80083138000840A710880000130F707031850
:1001C800F80A0030F807EB2883129301EB288C110A
:1001D8007608FF0075088A0074088400730E83008F
:1001E800FE0E7E0E090083120313BA01BB01FC2820
:1001F800361CFF28002906293808BA070318BB0A45
:100208003908BB0701300310B80DB90DFF3E031DB7
:10021800072901300310B70CB60CFF3E031D0E2949
:1002280037083604031D19291A29FC281B293B08FD
:10023800B701B7073A08B601B607222908000A121B
:100248008A11C1210A128A1129290A128A11A421A4
:100258000A128A1183120313C9004908CA00350813
:10026800C601C6073408C501C5070A128A118B20C2
:100278000A128A11831203133408880029292929AC
:100288000A128A111228831203133708B901B90711
:100298003608B801B8073908803AFF0081307F0274
:1002A800031D582900303802031C5B295C29622988
:1002B800FF3083120313B8000030B9008312031310
:1002C8003808950008008316031307178717831249
:1002D800031394168316031314139413831203132E
:1002E80014161410941414159411831603138C15F2
:1002F8000E3093000B178B170B1683120313A201F2
:10030800A30108008316031387168C10FF30920090
:100318000C308312031397009501971217128C1053
:1003280004309200972983128C1C9B299C299729B9
:100338008C10831603138712A3299729972908007D
:100348004930831203132205B40092302305B50007
:100358002308803AFF0080307F02031DB529013051
:100368002202031CB829B929BD290130C029C02996
:10037800C0290030C029C02908000A128A11862124
:100388000A128A110A128A1167210A128A110A129C
:100398008A11EE210A128A11831603138801831227
:1003A800031388010800F701F80183132030840043
:1003B80036300A128A11E6210A128A1183010A12BA
:1003C8008A11232964008001840A04060319003471
:1003D8000406E72983160313861183120313861173
:0203E80008000B
:02400E00F4F4C8
:00000001FF
