:060000000A128A11122809
:10000800FE00030EF3000408F4000A08F50083124A
:1000180003137F08F6000A128A1115280A128A119A
:100028000A29023077067804031D1B281C281F287C
:10003800F701F8011F2883160313941E2428252886
:100048003C28831203131308F000F1017708F2002B
:100058007207203E8400700883138000840A7108A8
:1000680080000130F7070318F80A0030F8073F2826
:10007800831293013F288C117608FF0075088A00C7
:1000880074088400730E8300FE0E7E0E09000A12A7
:100098008A11F4200A128A1151280A128A11722030
:1000A8000A128A11831203133708BB01BB073608EB
:1000B800BA01BA073508B701B7073408B601B60759
:1000C8000A128A1197200A128A118312031334081C
:1000D8008800512851280A128A1112287F30831269
:1000E80003132205B40000302305B5002308803A25
:1000F800FF0080307F02031D832801302202031C89
:10010800862887289028013083120313B600003010
:10011800B70096289628962883120313B601B701CC
:10012800962896280800831203133708B901B907DF
:100138003608B801B8073908803AFF0081307F02D5
:10014800031DA82800303802031CAB28AC28B228AD
:10015800FF3083120313B8000030B9008312031371
:1001680038089500080083160313071787178312AA
:10017800031394168316031314139413831203138F
:1001880014161410941414159411831603138C1553
:10019800AC3093000B178B170B1683120313A201B5
:1001A800A30108008316031387168C10FF309200F2
:1001B8000C308312031397009501971217128C10B5
:1001C80004309200E72883128C1CEB28EC28E728DF
:1001D8008C10831603138712F328E728E7280800F2
:1001E8000A128A11D6200A128A110A128A11B72015
:1001F8000A128A110A128A1121210A128A118316F7
:10020800031388018312031388010800F701F8011A
:1002180083132030840036300A128A1119210A12F9
:100228008A1183010A128A114B2864008001840A0A
:1002380004060319003404061A29831603138611C9
:08024800831203138611080064
:02400E00F4F4C8
:00000001FF
