:060000000A128A115B2EBA
:100CB60083010A128A11282F0A128A1181260A1222
:100CC6008A1108007108F301F3077008F201F207B0
:100CD6007308803AFF0081307F02031D742E0030B6
:100CE6007202031C772E782E7C2EFF30F200003025
:100CF600F30072088312031395000800831603138A
:100D060087168C10FF3092000C3083120313970065
:100D16009501971217128C1004309200922E8312AE
:100D26008C1C962E972E922E8C10831603138712E8
:100D36009E2E922E922E0800F301F401B42E01305D
:100D4600F3070318F40A0030F407FF30F30703181B
:100D5600F40AFF30F4070130F3070318F40A0030F1
:100D6600F4077408803AF2007108803A7202031D93
:100D7600BE2E70087302031CC12EC22EA22EC32ED5
:100D8600080083120313A001A101C92E791CCC2EE1
:100D9600CD2ED52E7B0883120313A0070318A10AB4
:100DA6007C08A10701300310FB0DFC0DFF3E031D5F
:100DB600D62E01300310FA0CF90CFF3E031DDD2E72
:100DC6007A087904031DE82EE92EC92EEA2E83122D
:100DD60003132108FA01FA072008F901F907F32E8F
:100DE60008000A30F0000030F100831203132308D4
:100DF600F301F3072208F201F2070A128A118C277F
:100E06000A128A117108FA01FA077008F901F9073E
:100E1600FF30FB000030FC000A128A11C4260A12B9
:100E26008A117A0883120313A501A5077908A4017C
:100E3600A4072508F101F1072408F001F0070A12BA
:100E46008A1165260A128A1108000A128A115F267B
:100E56000A128A112E2FFD010A307D02031C342F3F
:100E6600352F372F5B2F5B2F7D0883120313A600C8
:100E7600A7012608A2002708A3000A128A11F42651
:100E86000A128A11C830F0000030F1000A128A11E5
:100E96009F260A128A11013083120313A600260820
:100EA600FD070A307D02031C592F5A2F372F5B2F5F
:100EB6000A3083120313A6002608FD00FD08031D51
:100EC600652F662F682F2E2F2E2F7D088312031372
:100ED600A600A7012608A2002708A3000A128A1165
:100EE600F4260A128A11C830F0000030F1000A1206
:100EF6008A119F260A128A110130FD02FD08031D80
:100F0600852F862F682F2E2F2E2F2E2F0A128A110D
:100F16000028F601F11F902F912F9A2FF009F10961
:100F2600F00A0319F10AF6010314F60D9A2FF31FBE
:100F36009D2F9E2FA82FF209F309F20A0319F30A2F
:100F46000130F4007408F606A82FF701F8017108BD
:100F560070040319AF2FB02FEE2FF5010314F50D12
:100F6600C02F01300310F00DF10DFF3E031DB52F0C
:100F76000130F4007408F507C02FF11FC32FC42FEA
:100F8600B42FC62FC62F01300310F70DF80DFF3E04
:100F9600031DC72F71087302031DD32F7008720239
:100FA600031CD62FD72FDF2F7008F2027108031CFF
:100FB600F303F3027714DF2F01300310F10CF00C6A
:100FC600FF3E031DE02F0130F502031DEB2FEC2F32
:100FD600C62FEE2FEE2F7608031DF22FF82FF709F6
:100FE600F809F70A0319F80AF82F7808F101F1074A
:0A0FF6007708F001F007FF2F080054
:02400E00F4F4C8
:00000001FF
