:060000000A128A11122809
:10000800FE00030EF3000408F4000A08F50083124A
:1000180003137F08F6000A128A1115280A128A119A
:100028001D298316031314082439203A031D1D289B
:100038001E282F28831203131308F000F1017708F4
:10004800F2007207203E8400700883138000840A3F
:10005800710880004B288316031314082439031DE4
:10006800362837283B288312031393014B2883161D
:10007800031314082439043A031D43284428462846
:100088004B284B2814084B284B284B284B28013069
:10009800F7070318F80A0030F80783128C1176085E
:1000A800FF0075088A0074088400730E8300FE0E32
:1000B8007E0E09000A128A1107210A128A11642881
:1000C8000A128A1185200A128A1183120313290839
:1000D800AD01AD072808AC01AC072708A901A9079D
:1000E8002608A801A8070A128A11AA200A128A114A
:1000F8008312031326088800642864280A128A11C8
:1001080012287F30831203132205A600003023052E
:10011800A7002308803AFF0080307F02031D96283D
:1001280001302202031C99289A28A328013083123F
:100138000313A8000030A900A928A928A928831218
:100148000313A801A901A928A928080083120313E9
:100158002908AB01AB072808AA01AA072B08803A8F
:10016800FF0081307F02031DBB2800302A02031CD8
:10017800BE28BF28C528FF3083120313AA00003009
:10018800AB00831203132A08950008008316031393
:100198000717871783120313941683160313141370
:1001A8009413831203131416141094141415941131
:1001B800831603138C15AC3093000B178B170B1693
:1001C80083120313A201A3010800831603138716E1
:1001D8008C10FF3092000C308312031397009501A6
:1001E800971217128C1004309200FA2883128C1C74
:1001F800FE28FF28FA288C10831603138712062975
:10020800FA28FA2808000A128A11E9200A128A1123
:100218000A128A11CA200A128A110A128A112B217B
:100228000A128A11831603138801831203138801A3
:100238000800F701F801A001A101A201A301A4018E
:10024800A501A601A70183010A128A115E28831657
:0C025800031386118312031386110800A3
:02400E00F4F4C8
:00000001FF
