:060000000A128A11122809
:10000800FE00030EF3000408F4000A08F50083124A
:1000180003137F08F6000A128A111F290A128A118F
:1000280042298316031314082439203A031D1D2876
:100038001E282828831203131308F2007908773E34
:100048008400720880006B2883160313140824396F
:10005800031D2F28302834288312031393016B289B
:100068008316031314082439043A031D3C283D2839
:100078003F286B286B2814082439143A031D452897
:1000880046286B28831203131308F2007208FB003A
:100098007B08013A031D51285228592800300A12BA
:1000A8008A1156210A128A116B287B08023A031D0D
:1000B8005E285F286B2800300A128A1156210A121E
:1000C8008A116B286B286B286B286B286B280130EA
:1000D800F9070318FA0A0030FA07831203138C1180
:1000E800023079067A04031D7A287B2883280A12AD
:1000F8008A11EC200A128A11F901FA0183280800F2
:100108000A128A1131210A128A118312031328084C
:10011800A400A5012408A0002508A1000A128A113C
:1001280008210A128A11831203132908A400A501C1
:100138002408A0002508A1000A128A11AE200A127C
:100148008A118312031326088800892889280A122D
:100158008A111228831203132108A301A307200878
:10016800A201A2072308803AFF0081307F02031D05
:10017800BF2800302202031CC228C328C928FF3028
:1001880083120313A2000030A30083120313220872
:10019800950008008316031387168C10FF30920011
:1001A8000C308312031397009501971217128C10C5
:1001B80004309200DF2883128C1CE328E428DF280F
:1001C8008C10831603138712EB28DF28DF2808001A
:1001D800022978087F39F000700883120313A900F8
:1001E8007808F00007300310F00CFF3E031DF728D5
:1001F8007008F1007108A800072907297708003A54
:100208000319ED2807290800831203132108200485
:10021800031D0F291029122986111E2901302006D5
:100228002104031D182919291B2986151E29861141
:100238001E291E2908000A128A1115200A128A117D
:10024800760883120313FF0075088A007408840077
:10025800730E8300FE0E7E0E09000A128A11CE204C
:100268000A128A110A128A114F210A128A11831658
:10027800031388018312031388010800F701F801AA
:10028800F901FA01FB01A601A701A801A90183014F
:100298000A128A1184288316031386118312031302
:0602A800861108000800A9
:02400E00F4F4C8
:00000001FF
