:060000000A128A11122809
:10000800FE00030EF3000408F4000A08F50083124A
:1000180003137F08F6000A128A11AC2A0A128A1101
:10002800BE2A0A128A1195220A128A11A030831652
:100038000313810085018801831203138101242899
:10004800FF308800B301B4013408803AFF008030E3
:100058007F02031D31280B303302031C3428352856
:10006800372865286528831203133408B001B007C0
:100078003308AF01AF070A128A118F210A128A11B9
:10008800703083120313A0001730A1000A128A11DE
:10009800F1210A128A11013083120313B3070318DE
:1000A800B40A0030B4073408803AFF0080307F0279
:1000B800031D60280B303302031C6328642837288B
:1000C80065288312031388010A30B3000030B40096
:1000D800B41F6F2870287228952895283408B00115
:1000E800B0073308AF01AF070A128A118F210A122D
:1000F8008A11703083120313A0001730A1000A126E
:100108008A11F1210A128A11FF3083120313B307EF
:100118000318B40AFF30B407B41F93289428722830
:1001280095287030A0001730A1000A128A11F12119
:100138000A128A11831203138619A328A428A62851
:100148008615242886112428242824280A128A118E
:10015800122883120313AC01A71FB328B428BD28A3
:10016800A609A709A60A0319A70AAC010314AC0D2E
:10017800BD28A91FC028C128CB28A809A909A80AF1
:100188000319A90A0130AA002A08AC06CB28AD0138
:10019800AE01270826040319D228D3281129AB0158
:1001A8000314AB0DE32801300310A60DA70DFF3E85
:1001B800031DD8280130AA002A08AB07E328A71F87
:1001C800E628E728D728E928E92801300310AD0DEB
:1001D800AE0DFF3E031DEA2827082902031DF62855
:1001E80026082802031CF928FA2802292608A8024A
:1001F8002708031CA903A9022D14022901300310A2
:10020800A70CA60CFF3E031D03290130AB02031DFA
:100218000E290F29E928112911292C08031D152950
:100228001B29AD09AE09AD0A0319AE0A1B292E0810
:10023800A701A7072D08A601A607222908008316EB
:10024800031314082439203A031D2B292C293A2991
:10025800831203131308F2007908773E84007208AA
:1002680080000130F2007208F9077D298316031314
:1002780014082439031D41294229462983120313EE
:1002880093017D298316031314082439043A031DA6
:100298004E294F2951297D297D2914082439143ADA
:1002A800031D572958297D29831203131308F200C7
:1002B8007208FB007B08013A031D632964296B2936
:1002C80000300A128A11D3220A128A117D297B086A
:1002D800023A031D702971297D2900300A128A11FA
:1002E800D3220A128A117D297D297D297D297D291C
:1002F8007D29831203138C117908023A031D85297D
:1003080086298E29F9010A128A117B220A128A117A
:100318008E298E2908000A3083120313A6000030A4
:10032800A7003008A101A1072F08A001A007FF30EE
:10033800A2000030A3000A128A11C5210A128A11EC
:10034800831203132108A901A9072008A801A807F7
:100358000A128A11AD200A128A1183120313270880
:10036800B201B2072608B101B1073208A101A107FD
:100378003108A001A0070A128A113D220A128A1127
:10038800080083120313A401A501CA29201CCD2942
:10039800CE29D4292208A4070318A50A2308A507EB
:1003A80001300310A20DA30DFF3E031DD529013016
:1003B8000310A10CA00CFF3E031DDC29210820041A
:1003C800031DE729E829CA29E9292508A101A10768
:1003D8002408A001A007F029080083120313A30131
:1003E800A4010A2A013083120313A3070318A40ADD
:1003F8000030A407FF30A3070318A40AFF30A4079E
:100408000130A3070318A40A0030A4072408803A7F
:10041800A2002108803A2202031D142A2008230280
:10042800031C172A182AF629192A0800831203130D
:10043800A000831603130717871783120313941654
:10044800831603131413941383120313141614102E
:10045800941414159411831603138C158312031323
:1004680020088316031393000B178B170B16F9013B
:100478000800831203132108A301A3072008A2017F
:10048800A2072308803AFF0081307F02031D4E2A0D
:1004980000302202031C512A522A582AFF308312A4
:1004A8000313A2000030A30083120313220895004F
:1004B80008008316031387168C10FF3092000C3047
:1004C8008312031397009501971217128C100430AA
:1004D80092006E2A83128C1C722A732A6E2A8C1040
:1004E8008316031387127A2A6E2A6E2A08008F2A27
:1004F80078087F39F0007008FC007808F0000730B1
:100508000310F00CFF3E031D842A7008F1007108E7
:10051800FA00942A942A7708003A03197C2A942A24
:1005280008000A128A115D220A128A1110300A1272
:100538008A111A220A128A110A128A11CC220A1264
:100548008A11831603138801831203138801080094
:100558000A128A1123210A128A11760883120313B8
:10056800FF0075088A0074088400730E8300FE0E6D
:100578007E0E0900F701F801F901FA01FB01FC01FF
:10058800B301B401B501B60183010A128A11152815
:1005980083160313861183120313861508000800B7
:02400E00F4F4C8
:00000001FF
