:060000000A128A11122809
:10000800FE00030EF3000408F4000A08F50083124A
:1000180003137F08F6000A128A11C1280A128A11EE
:10002800062A83120313C201BD1F1B281C2825287A
:10003800BC09BD09BC0A0319BD0AC2010314C20DDB
:100048002528BF1F282829283328BE09BF09BE0A2A
:100058000319BF0A0130C0004008C2063328C30193
:10006800C4013D083C0403193A283B287928C101FA
:100078000314C10D4B2801300310BC0DBD0DFF3E0C
:10008800031D40280130C0004008C1074B28BD1F90
:100098004E284F283F285128512801300310C30DFE
:1000A800C40DFF3E031D52283D083F02031D5E2874
:1000B8003C083E02031C612862286A283C08BE02EC
:1000C8003D08031CBF03BF0243146A280130031014
:1000D800BD0CBC0CFF3E031D6B280130C102031D83
:1000E800762877285128792879284208031D7D2801
:1000F8008328C309C409C30A0319C40A8328440806
:10010800BD01BD074308BC01BC078A2808000A30A6
:1001180083120313BC000030BD004608B701B707BF
:100128004508B601B607FF30B8000030B9000A121A
:100138008A112B210A128A11831203133708BF016F
:10014800BF073608BE01BE070A128A1115200A1217
:100158008A11831203133D08C801C8073C08C70168
:10016800C7074808B701B7074708B601B6070A1214
:100178008A117C210A128A11080002307706780455
:10018800031DC728C828CB28F701F801CB288316F8
:100198000313941ED028D128E828831203131308C8
:1001A800F000F1017708F2007207203E8400700821
:1001B80083138000840A710880000130F707031850
:1001C800F80A0030F807EB2883129301EB288C110A
:1001D8007608FF0075088A0074088400730E83008F
:1001E800FE0E7E0E09000A128A11F0210A128A11E7
:1001F800FD280A128A1157210A128A118312031341
:100208003708CA01CA073608C901C9074A08B70129
:10021800B7074908B601B6070A128A11D9210A1286
:100228008A11831203133508C601C6073408C501AD
:10023800C5070A128A118B200A128A118312031326
:1002480034088800FD28FD280A128A111228831212
:100258000313BA01BB013029361C332934293A2942
:100268003808BA070318BB0A3908BB07013003105E
:10027800B80DB90DFF3E031D3B2901300310B70C23
:10028800B60CFF3E031D422937083604031D4D29CD
:100298004E2930294F293B08B701B7073A08B6015C
:1002A800B607562908004930831203132205B40003
:1002B80092302305B5002308803AFF0080307F0282
:1002C800031D682901302202031C6B296C2975293A
:1002D800013083120313B6000030B7007B297B2955
:1002E8007B2983120313B601B7017B297B290800F8
:1002F800831203133708B901B9073608B801B807DC
:100308003908803AFF0081307F02031D8D290030B3
:100318003802031C902991299729FF30831203136F
:10032800B8000030B900831203133808950008009C
:10033800831603130717871783120313941683165C
:100348000313141394138312031314161410941420
:1003580014159411831603138C150E3093000B1784
:100368008B170B1683120313A201A301080083162F
:10037800031387168C10FF3092000C30831203137E
:1003880097009501971217128C1004309200CC290F
:1003980083128C1CD029D129CC298C1083160313E5
:1003A8008712D829CC29CC290800831203133708CF
:1003B8003604031DE029E129E3298611EF290130DC
:1003C80036063704031DE929EA29EC298615EF29A1
:1003D8008611EF29EF2908000A128A11BB210A1297
:1003E8008A110A128A119C210A128A110A128A1188
:1003F8001D220A128A11831603138801831203131C
:1004080088010800F701F801831320308400363092
:100418000A128A1115220A128A1183010A128A11F4
:10042800F72864008001840A0406031900340406CE
:10043800162A8316031386118312031386110800E4
:02400E00F4F4C8
:00000001FF
