:04000000B8EF3FF026
:107F70000001BBEF3FF0F29E7F0ED36ED70ED56EA1
:107F8000000E956E8368000ED76E000ED66E000E42
:107F9000046E000E036E00D003C083FF034A042A60
:107FA000D6EC3FF0F9D7F8D700EF00F0000E026EE4
:107FB000000E016E0250800A800F330ED8B4015CAF
:107FC000D8A001D001D009D01AD019D006D0014ACA
:107FD000022A0106D8A0020600D0F2A401D001D0E6
:107FE000F6D7F294014A022A0250800A800F330E1B
:107FF000D8B4015CD8A001D001D0EFD700D01200D6
:020000040020DA
:08000000FFFFFFFFFFFFFFFF00
:020000040030CA
:0E000000FF08011EFF0B85FF0FC00FE00F4031
:00000001FF
